{
  "_format": "hh-sol-artifact-1",
  "contractName": "LPKeeper",
  "sourceName": "contracts/LPKeeper.sol",
  "abi": [
    {
      "inputs": [
        {
          "internalType": "address",
          "name": "_keeper",
          "type": "address"
        }
      ],
      "stateMutability": "nonpayable",
      "type": "constructor"
    },
    {
      "anonymous": false,
      "inputs": [
        {
          "indexed": true,
          "internalType": "address",
          "name": "by",
          "type": "address"
        }
      ],
      "name": "CircuitBreakerReset",
      "type": "event"
    },
    {
      "anonymous": false,
      "inputs": [
        {
          "indexed": true,
          "internalType": "address",
          "name": "by",
          "type": "address"
        },
        {
          "indexed": false,
          "internalType": "string",
          "name": "reason",
          "type": "string"
        }
      ],
      "name": "CircuitBreakerTriggered",
      "type": "event"
    },
    {
      "anonymous": false,
      "inputs": [
        {
          "indexed": true,
          "internalType": "address",
          "name": "to",
          "type": "address"
        },
        {
          "indexed": false,
          "internalType": "uint256",
          "name": "amount0",
          "type": "uint256"
        },
        {
          "indexed": false,
          "internalType": "uint256",
          "name": "amount1",
          "type": "uint256"
        }
      ],
      "name": "EmergencyWithdraw",
      "type": "event"
    },
    {
      "anonymous": false,
      "inputs": [
        {
          "indexed": true,
          "internalType": "address",
          "name": "oldKeeper",
          "type": "address"
        },
        {
          "indexed": true,
          "internalType": "address",
          "name": "newKeeper",
          "type": "address"
        }
      ],
      "name": "KeeperUpdated",
      "type": "event"
    },
    {
      "anonymous": false,
      "inputs": [
        {
          "indexed": false,
          "internalType": "int24",
          "name": "tickLower",
          "type": "int24"
        },
        {
          "indexed": false,
          "internalType": "int24",
          "name": "tickUpper",
          "type": "int24"
        },
        {
          "indexed": false,
          "internalType": "uint256",
          "name": "entryPrice",
          "type": "uint256"
        },
        {
          "indexed": false,
          "internalType": "uint128",
          "name": "liquidity",
          "type": "uint128"
        }
      ],
      "name": "PositionOpened",
      "type": "event"
    },
    {
      "anonymous": false,
      "inputs": [
        {
          "indexed": true,
          "internalType": "address",
          "name": "keeper",
          "type": "address"
        },
        {
          "indexed": false,
          "internalType": "int24",
          "name": "oldTickLower",
          "type": "int24"
        },
        {
          "indexed": false,
          "internalType": "int24",
          "name": "oldTickUpper",
          "type": "int24"
        },
        {
          "indexed": false,
          "internalType": "int24",
          "name": "newTickLower",
          "type": "int24"
        },
        {
          "indexed": false,
          "internalType": "int24",
          "name": "newTickUpper",
          "type": "int24"
        },
        {
          "indexed": false,
          "internalType": "uint256",
          "name": "currentPrice",
          "type": "uint256"
        },
        {
          "indexed": false,
          "internalType": "uint256",
          "name": "timestamp",
          "type": "uint256"
        }
      ],
      "name": "Rebalanced",
      "type": "event"
    },
    {
      "anonymous": false,
      "inputs": [
        {
          "indexed": false,
          "internalType": "uint256",
          "name": "expectedMin",
          "type": "uint256"
        },
        {
          "indexed": false,
          "internalType": "uint256",
          "name": "actual",
          "type": "uint256"
        }
      ],
      "name": "SlippageGuardFailed",
      "type": "event"
    },
    {
      "inputs": [],
      "name": "canRebalance",
      "outputs": [
        {
          "internalType": "bool",
          "name": "ok",
          "type": "bool"
        },
        {
          "internalType": "string",
          "name": "reason",
          "type": "string"
        }
      ],
      "stateMutability": "view",
      "type": "function"
    },
    {
      "inputs": [],
      "name": "cooldownSeconds",
      "outputs": [
        {
          "internalType": "uint256",
          "name": "",
          "type": "uint256"
        }
      ],
      "stateMutability": "view",
      "type": "function"
    },
    {
      "inputs": [],
      "name": "dailyRebalanceCount",
      "outputs": [
        {
          "internalType": "uint256",
          "name": "",
          "type": "uint256"
        }
      ],
      "stateMutability": "view",
      "type": "function"
    },
    {
      "inputs": [],
      "name": "dailyRebalanceResetTs",
      "outputs": [
        {
          "internalType": "uint256",
          "name": "",
          "type": "uint256"
        }
      ],
      "stateMutability": "view",
      "type": "function"
    },
    {
      "inputs": [
        {
          "internalType": "address",
          "name": "to",
          "type": "address"
        }
      ],
      "name": "emergencyWithdraw",
      "outputs": [],
      "stateMutability": "nonpayable",
      "type": "function"
    },
    {
      "inputs": [],
      "name": "getPosition",
      "outputs": [
        {
          "components": [
            {
              "internalType": "int24",
              "name": "tickLower",
              "type": "int24"
            },
            {
              "internalType": "int24",
              "name": "tickUpper",
              "type": "int24"
            },
            {
              "internalType": "uint128",
              "name": "liquidity",
              "type": "uint128"
            },
            {
              "internalType": "uint256",
              "name": "entryPrice",
              "type": "uint256"
            },
            {
              "internalType": "uint256",
              "name": "feeAccumulated",
              "type": "uint256"
            },
            {
              "internalType": "uint256",
              "name": "lastRebalanceTs",
              "type": "uint256"
            },
            {
              "internalType": "uint256",
              "name": "rebalanceCount",
              "type": "uint256"
            }
          ],
          "internalType": "struct LPKeeper.Position",
          "name": "",
          "type": "tuple"
        }
      ],
      "stateMutability": "view",
      "type": "function"
    },
    {
      "inputs": [],
      "name": "keeper",
      "outputs": [
        {
          "internalType": "address",
          "name": "",
          "type": "address"
        }
      ],
      "stateMutability": "view",
      "type": "function"
    },
    {
      "inputs": [],
      "name": "maxRebalancesPerDay",
      "outputs": [
        {
          "internalType": "uint256",
          "name": "",
          "type": "uint256"
        }
      ],
      "stateMutability": "view",
      "type": "function"
    },
    {
      "inputs": [],
      "name": "maxSlippageBps",
      "outputs": [
        {
          "internalType": "uint256",
          "name": "",
          "type": "uint256"
        }
      ],
      "stateMutability": "view",
      "type": "function"
    },
    {
      "inputs": [
        {
          "internalType": "int24",
          "name": "tickLower",
          "type": "int24"
        },
        {
          "internalType": "int24",
          "name": "tickUpper",
          "type": "int24"
        },
        {
          "internalType": "uint256",
          "name": "entryPrice",
          "type": "uint256"
        },
        {
          "internalType": "uint128",
          "name": "liquidity",
          "type": "uint128"
        }
      ],
      "name": "openPosition",
      "outputs": [],
      "stateMutability": "nonpayable",
      "type": "function"
    },
    {
      "inputs": [],
      "name": "owner",
      "outputs": [
        {
          "internalType": "address",
          "name": "",
          "type": "address"
        }
      ],
      "stateMutability": "view",
      "type": "function"
    },
    {
      "inputs": [],
      "name": "paused",
      "outputs": [
        {
          "internalType": "bool",
          "name": "",
          "type": "bool"
        }
      ],
      "stateMutability": "view",
      "type": "function"
    },
    {
      "inputs": [],
      "name": "position",
      "outputs": [
        {
          "internalType": "int24",
          "name": "tickLower",
          "type": "int24"
        },
        {
          "internalType": "int24",
          "name": "tickUpper",
          "type": "int24"
        },
        {
          "internalType": "uint128",
          "name": "liquidity",
          "type": "uint128"
        },
        {
          "internalType": "uint256",
          "name": "entryPrice",
          "type": "uint256"
        },
        {
          "internalType": "uint256",
          "name": "feeAccumulated",
          "type": "uint256"
        },
        {
          "internalType": "uint256",
          "name": "lastRebalanceTs",
          "type": "uint256"
        },
        {
          "internalType": "uint256",
          "name": "rebalanceCount",
          "type": "uint256"
        }
      ],
      "stateMutability": "view",
      "type": "function"
    },
    {
      "inputs": [
        {
          "components": [
            {
              "internalType": "int24",
              "name": "newTickLower",
              "type": "int24"
            },
            {
              "internalType": "int24",
              "name": "newTickUpper",
              "type": "int24"
            },
            {
              "internalType": "uint256",
              "name": "currentPrice",
              "type": "uint256"
            },
            {
              "internalType": "uint256",
              "name": "minAmount0",
              "type": "uint256"
            },
            {
              "internalType": "uint256",
              "name": "minAmount1",
              "type": "uint256"
            },
            {
              "internalType": "uint128",
              "name": "liquidityDelta",
              "type": "uint128"
            }
          ],
          "internalType": "struct LPKeeper.RebalanceParams",
          "name": "params",
          "type": "tuple"
        }
      ],
      "name": "rebalance",
      "outputs": [],
      "stateMutability": "nonpayable",
      "type": "function"
    },
    {
      "inputs": [],
      "name": "resetCircuitBreaker",
      "outputs": [],
      "stateMutability": "nonpayable",
      "type": "function"
    },
    {
      "inputs": [],
      "name": "secondsUntilCooldownEnd",
      "outputs": [
        {
          "internalType": "uint256",
          "name": "",
          "type": "uint256"
        }
      ],
      "stateMutability": "view",
      "type": "function"
    },
    {
      "inputs": [
        {
          "internalType": "uint256",
          "name": "seconds_",
          "type": "uint256"
        }
      ],
      "name": "setCooldown",
      "outputs": [],
      "stateMutability": "nonpayable",
      "type": "function"
    },
    {
      "inputs": [
        {
          "internalType": "address",
          "name": "newKeeper",
          "type": "address"
        }
      ],
      "name": "setKeeper",
      "outputs": [],
      "stateMutability": "nonpayable",
      "type": "function"
    },
    {
      "inputs": [
        {
          "internalType": "uint256",
          "name": "max_",
          "type": "uint256"
        }
      ],
      "name": "setMaxRebalancesPerDay",
      "outputs": [],
      "stateMutability": "nonpayable",
      "type": "function"
    },
    {
      "inputs": [
        {
          "internalType": "uint256",
          "name": "bps",
          "type": "uint256"
        }
      ],
      "name": "setMaxSlippage",
      "outputs": [],
      "stateMutability": "nonpayable",
      "type": "function"
    },
    {
      "inputs": [],
      "name": "simulatedBalance0",
      "outputs": [
        {
          "internalType": "uint256",
          "name": "",
          "type": "uint256"
        }
      ],
      "stateMutability": "view",
      "type": "function"
    },
    {
      "inputs": [],
      "name": "simulatedBalance1",
      "outputs": [
        {
          "internalType": "uint256",
          "name": "",
          "type": "uint256"
        }
      ],
      "stateMutability": "view",
      "type": "function"
    },
    {
      "inputs": [
        {
          "internalType": "string",
          "name": "reason",
          "type": "string"
        }
      ],
      "name": "triggerCircuitBreaker",
      "outputs": [],
      "stateMutability": "nonpayable",
      "type": "function"
    }
  ],
  "bytecode": "0x60806040526032600755610708600855600a60095534801561002057600080fd5b506040516117cf3803806117cf83398101604081905261003f9161008b565b60008054336001600160a01b031991821617909155600180549091166001600160a01b039290921691909117905542600b5564012a05f200600c55671bc16d674ec80000600d556100bb565b60006020828403121561009d57600080fd5b81516001600160a01b03811681146100b457600080fd5b9392505050565b611705806100ca6000396000f3fe608060405234801561001057600080fd5b506004361061014d5760003560e01c80637ae0b36a116100c3578063aced16611161007c578063aced166114610371578063aefa9d2514610384578063b8221bc414610397578063bfa88431146103a0578063c4aa7395146103a9578063de5f8d93146103b257600080fd5b80637ae0b36a146103035780638da5cb5b1461030c57806391d3a20f14610337578063958e45c51461034a578063a06880c014610353578063a440248d1461036957600080fd5b80635c975abb116101155780635c975abb1461023057806361b242c5146102545780636ff1c9bc1461026757806372dac4f31461027a5780637398ab1814610283578063748747e6146102f057600080fd5b806309218e911461015257806323bff40e146101de57806343f68a49146101f35780634fc3f41a1461020657806355ac68f614610219575b600080fd5b6002805460035460045460055460065461018e9585810b956301000000810490910b94600160301b9091046001600160801b0316939092909187565b60408051600298890b81529690970b60208701526001600160801b03909416958501959095526060840191909152608083015260a082019290925260c081019190915260e0015b60405180910390f35b6101f16101ec366004611303565b6103ba565b005b6101f1610201366004611303565b610450565b6101f1610214366004611303565b6104dd565b610222600a5481565b6040519081526020016101d5565b60015461024490600160a01b900460ff1681565b60405190151581526020016101d5565b6101f161026236600461131c565b61056e565b6101f161027536600461138e565b610630565b61022260095481565b61028b610734565b6040516101d59190600060e082019050825160020b8252602083015160020b60208301526001600160801b036040840151166040830152606083015160608301526080830151608083015260a083015160a083015260c083015160c083015292915050565b6101f16102fe36600461138e565b6107e0565b610222600b5481565b60005461031f906001600160a01b031681565b6040516001600160a01b0390911681526020016101d5565b6101f16103453660046113ec565b6108b5565b610222600c5481565b61035b610b07565b6040516101d592919061145d565b610222610c1b565b60015461031f906001600160a01b031681565b6101f1610392366004611499565b610c52565b61022260085481565b610222600d5481565b61022260075481565b6101f161109d565b6000546001600160a01b031633146103ed5760405162461bcd60e51b81526004016103e4906114b1565b60405180910390fd5b600181101580156103ff575060308111155b61044b5760405162461bcd60e51b815260206004820152601760248201527f4c504b65657065723a20696e76616c6964206c696d697400000000000000000060448201526064016103e4565b600955565b6000546001600160a01b0316331461047a5760405162461bcd60e51b81526004016103e4906114b1565b6101f48111156104d85760405162461bcd60e51b8152602060048201526024808201527f4c504b65657065723a20736c69707061676520746f6f206869676820286d61786044820152632035252960e01b60648201526084016103e4565b600755565b6000546001600160a01b031633146105075760405162461bcd60e51b81526004016103e4906114b1565b61012c8110156105695760405162461bcd60e51b815260206004820152602760248201527f4c504b65657065723a20636f6f6c646f776e20746f6f2073686f727420286d696044820152666e20356d696e2960c81b60648201526084016103e4565b600855565b6000546001600160a01b031633148061059157506001546001600160a01b031633145b6105dd5760405162461bcd60e51b815260206004820152601860248201527f4c504b65657065723a206e6f7420617574686f72697a6564000000000000000060448201526064016103e4565b6001805460ff60a01b1916600160a01b17905560405133907ff0ca201a259f21761e7392673b3e9269933e13069f2081af411cb4079825f8429061062490859085906114de565b60405180910390a25050565b6000546001600160a01b0316331461065a5760405162461bcd60e51b81526004016103e4906114b1565b6001600160a01b0381166106b05760405162461bcd60e51b815260206004820152601960248201527f4c504b65657065723a20696e76616c696420616464726573730000000000000060448201526064016103e4565b600c8054600d805460009384905592905560028054600160301b600160b01b03191690556001805460ff60a01b1916600160a01b17905560408051828152602081018490529192916001600160a01b038516917fbb757047c2b5f3974fe26b7c10f732e7bce710b0952a71082702781e62ae059591015b60405180910390a2505050565b6107836040518060e00160405280600060020b8152602001600060020b815260200160006001600160801b03168152602001600081526020016000815260200160008152602001600081525090565b506040805160e0810182526002805480820b83526301000000810490910b6020830152600160301b90046001600160801b0316918101919091526003546060820152600454608082015260055460a082015260065460c082015290565b6000546001600160a01b0316331461080a5760405162461bcd60e51b81526004016103e4906114b1565b6001600160a01b0381166108595760405162461bcd60e51b81526020600482015260166024820152754c504b65657065723a207a65726f206164647265737360501b60448201526064016103e4565b6001546040516001600160a01b038084169216907f53d3703fe259def57584466f32d1b94c30278008c683c21b04501c4966f13a6990600090a3600180546001600160a01b0319166001600160a01b0392909216919091179055565b6001546001600160a01b031633146109065760405162461bcd60e51b8152602060048201526014602482015273262825b2b2b832b91d103737ba1035b2b2b832b960611b60448201526064016103e4565b600154600160a01b900460ff16156109605760405162461bcd60e51b815260206004820181905260248201527f4c504b65657065723a206369726375697420627265616b65722061637469766560448201526064016103e4565b600254600160301b90046001600160801b0316156109c05760405162461bcd60e51b815260206004820152601f60248201527f4c504b65657065723a20706f736974696f6e20616c7265616479206f70656e0060448201526064016103e4565b8260020b8460020b12610a155760405162461bcd60e51b815260206004820152601760248201527f4c504b65657065723a20696e76616c6964207469636b7300000000000000000060448201526064016103e4565b60008211610a5f5760405162461bcd60e51b81526020600482015260176024820152764c504b65657065723a20696e76616c696420707269636560481b60448201526064016103e4565b6002805460038490556001600160801b038316600160301b8102600160301b600160b01b031962ffffff88811663010000000265ffffffffffff19909516908a161793909317929092169190911782554260055560006006556040805187840b81529286900b6020840152820184905260608201527fbb8b37201107ff6d4f7234846b4d4934d8f679cf3ae8043305a77e6f1fe283a49060800160405180910390a150505050565b600154600090606090600160a01b900460ff1615610b535750506040805180820190915260168152756369726375697420627265616b65722061637469766560501b6020820152600091565b600854600554610b639190611523565b421015610bbf57600042600854600260030154610b809190611523565b610b8a919061153c565b90506000610b9782611101565b604051602001610ba7919061154f565b60405160208183030381529060405292509250509091565b600954600a5410610bfb57505060408051808201909152601381527219185a5b1e481b1a5b5a5d081c995858da1959606a1b6020820152600091565b50506040805180820190915260028152616f6b60f01b6020820152600191565b600080600854600260030154610c319190611523565b9050804210610c4257600091505090565b610c4c428261153c565b91505090565b6001546001600160a01b03163314610ca35760405162461bcd60e51b8152602060048201526014602482015273262825b2b2b832b91d103737ba1035b2b2b832b960611b60448201526064016103e4565b600154600160a01b900460ff1615610cfd5760405162461bcd60e51b815260206004820181905260248201527f4c504b65657065723a206369726375697420627265616b65722061637469766560448201526064016103e4565b600854600554610d0d9190611523565b421015610d5c5760405162461bcd60e51b815260206004820152601d60248201527f4c504b65657065723a20636f6f6c646f776e206e6f742070617373656400000060448201526064016103e4565b600b54610d6c9062015180611523565b4210610d7c576000600a5542600b555b600954600a5410610ddf5760405162461bcd60e51b815260206004820152602760248201527f4c504b65657065723a206461696c7920726562616c616e6365206c696d6974206044820152661c995858da195960ca1b60648201526084016103e4565b610def6040820160208301611596565b60020b610dff6020830183611596565b60020b12610e4f5760405162461bcd60e51b815260206004820152601c60248201527f4c504b65657065723a20696e76616c6964207469636b2072616e67650000000060448201526064016103e4565b600a610e5e6020830183611596565b610e6891906115c7565b60020b15610e885760405162461bcd60e51b81526004016103e4906115e9565b600a610e9a6040830160208401611596565b610ea491906115c7565b60020b15610ec45760405162461bcd60e51b81526004016103e4906115e9565b6000816040013511610f125760405162461bcd60e51b81526020600482015260176024820152764c504b65657065723a20696e76616c696420707269636560481b60448201526064016103e4565b610f1b81611208565b6002805480820b916301000000909104900b610f3a6020840184611596565b6002805462ffffff191662ffffff92909216919091179055610f626040840160208501611596565b6002805462ffffff9290921663010000000265ffffff000000199092169190911790556040830135600355426005556006805460019190600090610fa7908490611523565b9091555060009050610fbf60c0850160a08601611630565b6001600160801b0316111561100a57610fde60c0840160a08501611630565b600280546001600160801b0392909216600160301b02600160301b600160b01b03199092169190911790555b6001600a600082825461101d9190611523565b909155503390507faca038b186e51242eee9e987b8d480264e3d06034853437a40b9d32db2cf4b4383836110546020880188611596565b6110646040890160208a01611596565b60408051600295860b815293850b602085015291840b8383015290920b60608201529086013560808201524260a082015260c001610727565b6000546001600160a01b031633146110c75760405162461bcd60e51b81526004016103e4906114b1565b6001805460ff60a01b1916905560405133907f07663ee3f7c1099057fc9fc555efb675b77fe234386ec977b12f15d5f24fd03090600090a2565b6060816000036111285750506040805180820190915260018152600360fc1b602082015290565b8160005b8115611152578061113c8161164b565b915061114b9050600a83611664565b915061112c565b60008167ffffffffffffffff81111561116d5761116d611678565b6040519080825280601f01601f191660200182016040528015611197576020820181803683370190505b5090505b8415611200576111ac600a8661168e565b6111b7906030611523565b60f81b816111c4846116a2565b935083815181106111d7576111d76116b9565b60200101906001600160f81b031916908160001a9053506111f9600a86611664565b945061119b565b949350505050565b600254600160301b90046001600160801b03161561130057606081013515801561123457506080810135155b1561123c5750565b600c548160600135111561129e5760405162461bcd60e51b8152602060048201526024808201527f4c504b65657065723a206d696e416d6f756e743020657863656564732062616c604482015263616e636560e01b60648201526084016103e4565b600d54816080013511156113005760405162461bcd60e51b8152602060048201526024808201527f4c504b65657065723a206d696e416d6f756e743120657863656564732062616c604482015263616e636560e01b60648201526084016103e4565b50565b60006020828403121561131557600080fd5b5035919050565b6000806020838503121561132f57600080fd5b823567ffffffffffffffff8082111561134757600080fd5b818501915085601f83011261135b57600080fd5b81358181111561136a57600080fd5b86602082850101111561137c57600080fd5b60209290920196919550909350505050565b6000602082840312156113a057600080fd5b81356001600160a01b03811681146113b757600080fd5b9392505050565b8035600281900b81146113d057600080fd5b919050565b80356001600160801b03811681146113d057600080fd5b6000806000806080858703121561140257600080fd5b61140b856113be565b9350611419602086016113be565b92506040850135915061142e606086016113d5565b905092959194509250565b60005b8381101561145457818101518382015260200161143c565b50506000910152565b82151581526040602082015260008251806040840152611484816060850160208701611439565b601f01601f1916919091016060019392505050565b600060c082840312156114ab57600080fd5b50919050565b602080825260139082015272262825b2b2b832b91d103737ba1037bbb732b960691b604082015260600190565b60208152816020820152818360408301376000818301604090810191909152601f909201601f19160101919050565b634e487b7160e01b600052601160045260246000fd5b808201808211156115365761153661150d565b92915050565b818103818111156115365761153661150d565b69031b7b7b63237bbb71d160b51b81526000825161157481600a850160208701611439565b6a732072656d61696e696e6760a81b600a939091019283015250601501919050565b6000602082840312156115a857600080fd5b6113b7826113be565b634e487b7160e01b600052601260045260246000fd5b60008260020b806115da576115da6115b1565b808360020b0791505092915050565b60208082526027908201527f4c504b65657065723a207469636b206e6f7420616c69676e6564202873706163604082015266696e672031302960c81b606082015260800190565b60006020828403121561164257600080fd5b6113b7826113d5565b60006001820161165d5761165d61150d565b5060010190565b600082611673576116736115b1565b500490565b634e487b7160e01b600052604160045260246000fd5b60008261169d5761169d6115b1565b500690565b6000816116b1576116b161150d565b506000190190565b634e487b7160e01b600052603260045260246000fdfea2646970667358221220536c95a65c6514693bb75ce10e09e2c5dca5495c2fa4295124f572f1f3d8763664736f6c63430008180033",
  "linkReferences": {},
  "deployedLinkReferences": {}
}