{"contracts/LPKeeper.sol":{"LPKeeper":{"abi":[{"inputs":[{"internalType":"address","name":"_keeper","type":"address"}],"stateMutability":"nonpayable","type":"constructor"},{"anonymous":false,"inputs":[{"indexed":true,"internalType":"address","name":"by","type":"address"}],"name":"CircuitBreakerReset","type":"event"},{"anonymous":false,"inputs":[{"indexed":true,"internalType":"address","name":"by","type":"address"},{"indexed":false,"internalType":"string","name":"reason","type":"string"}],"name":"CircuitBreakerTriggered","type":"event"},{"anonymous":false,"inputs":[{"indexed":true,"internalType":"address","name":"to","type":"address"},{"indexed":false,"internalType":"uint256","name":"amount0","type":"uint256"},{"indexed":false,"internalType":"uint256","name":"amount1","type":"uint256"}],"name":"EmergencyWithdraw","type":"event"},{"anonymous":false,"inputs":[{"indexed":true,"internalType":"address","name":"oldKeeper","type":"address"},{"indexed":true,"internalType":"address","name":"newKeeper","type":"address"}],"name":"KeeperUpdated","type":"event"},{"anonymous":false,"inputs":[{"indexed":false,"internalType":"int24","name":"tickLower","type":"int24"},{"indexed":false,"internalType":"int24","name":"tickUpper","type":"int24"},{"indexed":false,"internalType":"uint256","name":"entryPrice","type":"uint256"},{"indexed":false,"internalType":"uint128","name":"liquidity","type":"uint128"}],"name":"PositionOpened","type":"event"},{"anonymous":false,"inputs":[{"indexed":true,"internalType":"address","name":"keeper","type":"address"},{"indexed":false,"internalType":"int24","name":"oldTickLower","type":"int24"},{"indexed":false,"internalType":"int24","name":"oldTickUpper","type":"int24"},{"indexed":false,"internalType":"int24","name":"newTickLower","type":"int24"},{"indexed":false,"internalType":"int24","name":"newTickUpper","type":"int24"},{"indexed":false,"internalType":"uint256","name":"currentPrice","type":"uint256"},{"indexed":false,"internalType":"uint256","name":"timestamp","type":"uint256"}],"name":"Rebalanced","type":"event"},{"anonymous":false,"inputs":[{"indexed":false,"internalType":"uint256","name":"expectedMin","type":"uint256"},{"indexed":false,"internalType":"uint256","name":"actual","type":"uint256"}],"name":"SlippageGuardFailed","type":"event"},{"inputs":[],"name":"canRebalance","outputs":[{"internalType":"bool","name":"ok","type":"bool"},{"internalType":"string","name":"reason","type":"string"}],"stateMutability":"view","type":"function"},{"inputs":[],"name":"cooldownSeconds","outputs":[{"internalType":"uint256","name":"","type":"uint256"}],"stateMutability":"view","type":"function"},{"inputs":[],"name":"dailyRebalanceCount","outputs":[{"internalType":"uint256","name":"","type":"uint256"}],"stateMutability":"view","type":"function"},{"inputs":[],"name":"dailyRebalanceResetTs","outputs":[{"internalType":"uint256","name":"","type":"uint256"}],"stateMutability":"view","type":"function"},{"inputs":[{"internalType":"address","name":"to","type":"address"}],"name":"emergencyWithdraw","outputs":[],"stateMutability":"nonpayable","type":"function"},{"inputs":[],"name":"getPosition","outputs":[{"components":[{"internalType":"int24","name":"tickLower","type":"int24"},{"internalType":"int24","name":"tickUpper","type":"int24"},{"internalType":"uint128","name":"liquidity","type":"uint128"},{"internalType":"uint256","name":"entryPrice","type":"uint256"},{"internalType":"uint256","name":"feeAccumulated","type":"uint256"},{"internalType":"uint256","name":"lastRebalanceTs","type":"uint256"},{"internalType":"uint256","name":"rebalanceCount","type":"uint256"}],"internalType":"struct LPKeeper.Position","name":"","type":"tuple"}],"stateMutability":"view","type":"function"},{"inputs":[],"name":"keeper","outputs":[{"internalType":"address","name":"","type":"address"}],"stateMutability":"view","type":"function"},{"inputs":[],"name":"maxRebalancesPerDay","outputs":[{"internalType":"uint256","name":"","type":"uint256"}],"stateMutability":"view","type":"function"},{"inputs":[],"name":"maxSlippageBps","outputs":[{"internalType":"uint256","name":"","type":"uint256"}],"stateMutability":"view","type":"function"},{"inputs":[{"internalType":"int24","name":"tickLower","type":"int24"},{"internalType":"int24","name":"tickUpper","type":"int24"},{"internalType":"uint256","name":"entryPrice","type":"uint256"},{"internalType":"uint128","name":"liquidity","type":"uint128"}],"name":"openPosition","outputs":[],"stateMutability":"nonpayable","type":"function"},{"inputs":[],"name":"owner","outputs":[{"internalType":"address","name":"","type":"address"}],"stateMutability":"view","type":"function"},{"inputs":[],"name":"paused","outputs":[{"internalType":"bool","name":"","type":"bool"}],"stateMutability":"view","type":"function"},{"inputs":[],"name":"position","outputs":[{"internalType":"int24","name":"tickLower","type":"int24"},{"internalType":"int24","name":"tickUpper","type":"int24"},{"internalType":"uint128","name":"liquidity","type":"uint128"},{"internalType":"uint256","name":"entryPrice","type":"uint256"},{"internalType":"uint256","name":"feeAccumulated","type":"uint256"},{"internalType":"uint256","name":"lastRebalanceTs","type":"uint256"},{"internalType":"uint256","name":"rebalanceCount","type":"uint256"}],"stateMutability":"view","type":"function"},{"inputs":[{"components":[{"internalType":"int24","name":"newTickLower","type":"int24"},{"internalType":"int24","name":"newTickUpper","type":"int24"},{"internalType":"uint256","name":"currentPrice","type":"uint256"},{"internalType":"uint256","name":"minAmount0","type":"uint256"},{"internalType":"uint256","name":"minAmount1","type":"uint256"},{"internalType":"uint128","name":"liquidityDelta","type":"uint128"}],"internalType":"struct LPKeeper.RebalanceParams","name":"params","type":"tuple"}],"name":"rebalance","outputs":[],"stateMutability":"nonpayable","type":"function"},{"inputs":[],"name":"resetCircuitBreaker","outputs":[],"stateMutability":"nonpayable","type":"function"},{"inputs":[],"name":"secondsUntilCooldownEnd","outputs":[{"internalType":"uint256","name":"","type":"uint256"}],"stateMutability":"view","type":"function"},{"inputs":[{"internalType":"uint256","name":"seconds_","type":"uint256"}],"name":"setCooldown","outputs":[],"stateMutability":"nonpayable","type":"function"},{"inputs":[{"internalType":"address","name":"newKeeper","type":"address"}],"name":"setKeeper","outputs":[],"stateMutability":"nonpayable","type":"function"},{"inputs":[{"internalType":"uint256","name":"max_","type":"uint256"}],"name":"setMaxRebalancesPerDay","outputs":[],"stateMutability":"nonpayable","type":"function"},{"inputs":[{"internalType":"uint256","name":"bps","type":"uint256"}],"name":"setMaxSlippage","outputs":[],"stateMutability":"nonpayable","type":"function"},{"inputs":[],"name":"simulatedBalance0","outputs":[{"internalType":"uint256","name":"","type":"uint256"}],"stateMutability":"view","type":"function"},{"inputs":[],"name":"simulatedBalance1","outputs":[{"internalType":"uint256","name":"","type":"uint256"}],"stateMutability":"view","type":"function"},{"inputs":[{"internalType":"string","name":"reason","type":"string"}],"name":"triggerCircuitBreaker","outputs":[],"stateMutability":"nonpayable","type":"function"}],"evm":{"bytecode":{"linkReferences":{},"object":"60806040526032600755610708600855600a60095534801561002057600080fd5b506040516117cf3803806117cf83398101604081905261003f9161008b565b60008054336001600160a01b031991821617909155600180549091166001600160a01b039290921691909117905542600b5564012a05f200600c55671bc16d674ec80000600d556100bb565b60006020828403121561009d57600080fd5b81516001600160a01b03811681146100b457600080fd5b9392505050565b611705806100ca6000396000f3fe608060405234801561001057600080fd5b506004361061014d5760003560e01c80637ae0b36a116100c3578063aced16611161007c578063aced166114610371578063aefa9d2514610384578063b8221bc414610397578063bfa88431146103a0578063c4aa7395146103a9578063de5f8d93146103b257600080fd5b80637ae0b36a146103035780638da5cb5b1461030c57806391d3a20f14610337578063958e45c51461034a578063a06880c014610353578063a440248d1461036957600080fd5b80635c975abb116101155780635c975abb1461023057806361b242c5146102545780636ff1c9bc1461026757806372dac4f31461027a5780637398ab1814610283578063748747e6146102f057600080fd5b806309218e911461015257806323bff40e146101de57806343f68a49146101f35780634fc3f41a1461020657806355ac68f614610219575b600080fd5b6002805460035460045460055460065461018e9585810b956301000000810490910b94600160301b9091046001600160801b0316939092909187565b60408051600298890b81529690970b60208701526001600160801b03909416958501959095526060840191909152608083015260a082019290925260c081019190915260e0015b60405180910390f35b6101f16101ec366004611303565b6103ba565b005b6101f1610201366004611303565b610450565b6101f1610214366004611303565b6104dd565b610222600a5481565b6040519081526020016101d5565b60015461024490600160a01b900460ff1681565b60405190151581526020016101d5565b6101f161026236600461131c565b61056e565b6101f161027536600461138e565b610630565b61022260095481565b61028b610734565b6040516101d59190600060e082019050825160020b8252602083015160020b60208301526001600160801b036040840151166040830152606083015160608301526080830151608083015260a083015160a083015260c083015160c083015292915050565b6101f16102fe36600461138e565b6107e0565b610222600b5481565b60005461031f906001600160a01b031681565b6040516001600160a01b0390911681526020016101d5565b6101f16103453660046113ec565b6108b5565b610222600c5481565b61035b610b07565b6040516101d592919061145d565b610222610c1b565b60015461031f906001600160a01b031681565b6101f1610392366004611499565b610c52565b61022260085481565b610222600d5481565b61022260075481565b6101f161109d565b6000546001600160a01b031633146103ed5760405162461bcd60e51b81526004016103e4906114b1565b60405180910390fd5b600181101580156103ff575060308111155b61044b5760405162461bcd60e51b815260206004820152601760248201527f4c504b65657065723a20696e76616c6964206c696d697400000000000000000060448201526064016103e4565b600955565b6000546001600160a01b0316331461047a5760405162461bcd60e51b81526004016103e4906114b1565b6101f48111156104d85760405162461bcd60e51b8152602060048201526024808201527f4c504b65657065723a20736c69707061676520746f6f206869676820286d61786044820152632035252960e01b60648201526084016103e4565b600755565b6000546001600160a01b031633146105075760405162461bcd60e51b81526004016103e4906114b1565b61012c8110156105695760405162461bcd60e51b815260206004820152602760248201527f4c504b65657065723a20636f6f6c646f776e20746f6f2073686f727420286d696044820152666e20356d696e2960c81b60648201526084016103e4565b600855565b6000546001600160a01b031633148061059157506001546001600160a01b031633145b6105dd5760405162461bcd60e51b815260206004820152601860248201527f4c504b65657065723a206e6f7420617574686f72697a6564000000000000000060448201526064016103e4565b6001805460ff60a01b1916600160a01b17905560405133907ff0ca201a259f21761e7392673b3e9269933e13069f2081af411cb4079825f8429061062490859085906114de565b60405180910390a25050565b6000546001600160a01b0316331461065a5760405162461bcd60e51b81526004016103e4906114b1565b6001600160a01b0381166106b05760405162461bcd60e51b815260206004820152601960248201527f4c504b65657065723a20696e76616c696420616464726573730000000000000060448201526064016103e4565b600c8054600d805460009384905592905560028054600160301b600160b01b03191690556001805460ff60a01b1916600160a01b17905560408051828152602081018490529192916001600160a01b038516917fbb757047c2b5f3974fe26b7c10f732e7bce710b0952a71082702781e62ae059591015b60405180910390a2505050565b6107836040518060e00160405280600060020b8152602001600060020b815260200160006001600160801b03168152602001600081526020016000815260200160008152602001600081525090565b506040805160e0810182526002805480820b83526301000000810490910b6020830152600160301b90046001600160801b0316918101919091526003546060820152600454608082015260055460a082015260065460c082015290565b6000546001600160a01b0316331461080a5760405162461bcd60e51b81526004016103e4906114b1565b6001600160a01b0381166108595760405162461bcd60e51b81526020600482015260166024820152754c504b65657065723a207a65726f206164647265737360501b60448201526064016103e4565b6001546040516001600160a01b038084169216907f53d3703fe259def57584466f32d1b94c30278008c683c21b04501c4966f13a6990600090a3600180546001600160a01b0319166001600160a01b0392909216919091179055565b6001546001600160a01b031633146109065760405162461bcd60e51b8152602060048201526014602482015273262825b2b2b832b91d103737ba1035b2b2b832b960611b60448201526064016103e4565b600154600160a01b900460ff16156109605760405162461bcd60e51b815260206004820181905260248201527f4c504b65657065723a206369726375697420627265616b65722061637469766560448201526064016103e4565b600254600160301b90046001600160801b0316156109c05760405162461bcd60e51b815260206004820152601f60248201527f4c504b65657065723a20706f736974696f6e20616c7265616479206f70656e0060448201526064016103e4565b8260020b8460020b12610a155760405162461bcd60e51b815260206004820152601760248201527f4c504b65657065723a20696e76616c6964207469636b7300000000000000000060448201526064016103e4565b60008211610a5f5760405162461bcd60e51b81526020600482015260176024820152764c504b65657065723a20696e76616c696420707269636560481b60448201526064016103e4565b6002805460038490556001600160801b038316600160301b8102600160301b600160b01b031962ffffff88811663010000000265ffffffffffff19909516908a161793909317929092169190911782554260055560006006556040805187840b81529286900b6020840152820184905260608201527fbb8b37201107ff6d4f7234846b4d4934d8f679cf3ae8043305a77e6f1fe283a49060800160405180910390a150505050565b600154600090606090600160a01b900460ff1615610b535750506040805180820190915260168152756369726375697420627265616b65722061637469766560501b6020820152600091565b600854600554610b639190611523565b421015610bbf57600042600854600260030154610b809190611523565b610b8a919061153c565b90506000610b9782611101565b604051602001610ba7919061154f565b60405160208183030381529060405292509250509091565b600954600a5410610bfb57505060408051808201909152601381527219185a5b1e481b1a5b5a5d081c995858da1959606a1b6020820152600091565b50506040805180820190915260028152616f6b60f01b6020820152600191565b600080600854600260030154610c319190611523565b9050804210610c4257600091505090565b610c4c428261153c565b91505090565b6001546001600160a01b03163314610ca35760405162461bcd60e51b8152602060048201526014602482015273262825b2b2b832b91d103737ba1035b2b2b832b960611b60448201526064016103e4565b600154600160a01b900460ff1615610cfd5760405162461bcd60e51b815260206004820181905260248201527f4c504b65657065723a206369726375697420627265616b65722061637469766560448201526064016103e4565b600854600554610d0d9190611523565b421015610d5c5760405162461bcd60e51b815260206004820152601d60248201527f4c504b65657065723a20636f6f6c646f776e206e6f742070617373656400000060448201526064016103e4565b600b54610d6c9062015180611523565b4210610d7c576000600a5542600b555b600954600a5410610ddf5760405162461bcd60e51b815260206004820152602760248201527f4c504b65657065723a206461696c7920726562616c616e6365206c696d6974206044820152661c995858da195960ca1b60648201526084016103e4565b610def6040820160208301611596565b60020b610dff6020830183611596565b60020b12610e4f5760405162461bcd60e51b815260206004820152601c60248201527f4c504b65657065723a20696e76616c6964207469636b2072616e67650000000060448201526064016103e4565b600a610e5e6020830183611596565b610e6891906115c7565b60020b15610e885760405162461bcd60e51b81526004016103e4906115e9565b600a610e9a6040830160208401611596565b610ea491906115c7565b60020b15610ec45760405162461bcd60e51b81526004016103e4906115e9565b6000816040013511610f125760405162461bcd60e51b81526020600482015260176024820152764c504b65657065723a20696e76616c696420707269636560481b60448201526064016103e4565b610f1b81611208565b6002805480820b916301000000909104900b610f3a6020840184611596565b6002805462ffffff191662ffffff92909216919091179055610f626040840160208501611596565b6002805462ffffff9290921663010000000265ffffff000000199092169190911790556040830135600355426005556006805460019190600090610fa7908490611523565b9091555060009050610fbf60c0850160a08601611630565b6001600160801b0316111561100a57610fde60c0840160a08501611630565b600280546001600160801b0392909216600160301b02600160301b600160b01b03199092169190911790555b6001600a600082825461101d9190611523565b909155503390507faca038b186e51242eee9e987b8d480264e3d06034853437a40b9d32db2cf4b4383836110546020880188611596565b6110646040890160208a01611596565b60408051600295860b815293850b602085015291840b8383015290920b60608201529086013560808201524260a082015260c001610727565b6000546001600160a01b031633146110c75760405162461bcd60e51b81526004016103e4906114b1565b6001805460ff60a01b1916905560405133907f07663ee3f7c1099057fc9fc555efb675b77fe234386ec977b12f15d5f24fd03090600090a2565b6060816000036111285750506040805180820190915260018152600360fc1b602082015290565b8160005b8115611152578061113c8161164b565b915061114b9050600a83611664565b915061112c565b60008167ffffffffffffffff81111561116d5761116d611678565b6040519080825280601f01601f191660200182016040528015611197576020820181803683370190505b5090505b8415611200576111ac600a8661168e565b6111b7906030611523565b60f81b816111c4846116a2565b935083815181106111d7576111d76116b9565b60200101906001600160f81b031916908160001a9053506111f9600a86611664565b945061119b565b949350505050565b600254600160301b90046001600160801b03161561130057606081013515801561123457506080810135155b1561123c5750565b600c548160600135111561129e5760405162461bcd60e51b8152602060048201526024808201527f4c504b65657065723a206d696e416d6f756e743020657863656564732062616c604482015263616e636560e01b60648201526084016103e4565b600d54816080013511156113005760405162461bcd60e51b8152602060048201526024808201527f4c504b65657065723a206d696e416d6f756e743120657863656564732062616c604482015263616e636560e01b60648201526084016103e4565b50565b60006020828403121561131557600080fd5b5035919050565b6000806020838503121561132f57600080fd5b823567ffffffffffffffff8082111561134757600080fd5b818501915085601f83011261135b57600080fd5b81358181111561136a57600080fd5b86602082850101111561137c57600080fd5b60209290920196919550909350505050565b6000602082840312156113a057600080fd5b81356001600160a01b03811681146113b757600080fd5b9392505050565b8035600281900b81146113d057600080fd5b919050565b80356001600160801b03811681146113d057600080fd5b6000806000806080858703121561140257600080fd5b61140b856113be565b9350611419602086016113be565b92506040850135915061142e606086016113d5565b905092959194509250565b60005b8381101561145457818101518382015260200161143c565b50506000910152565b82151581526040602082015260008251806040840152611484816060850160208701611439565b601f01601f1916919091016060019392505050565b600060c082840312156114ab57600080fd5b50919050565b602080825260139082015272262825b2b2b832b91d103737ba1037bbb732b960691b604082015260600190565b60208152816020820152818360408301376000818301604090810191909152601f909201601f19160101919050565b634e487b7160e01b600052601160045260246000fd5b808201808211156115365761153661150d565b92915050565b818103818111156115365761153661150d565b69031b7b7b63237bbb71d160b51b81526000825161157481600a850160208701611439565b6a732072656d61696e696e6760a81b600a939091019283015250601501919050565b6000602082840312156115a857600080fd5b6113b7826113be565b634e487b7160e01b600052601260045260246000fd5b60008260020b806115da576115da6115b1565b808360020b0791505092915050565b60208082526027908201527f4c504b65657065723a207469636b206e6f7420616c69676e6564202873706163604082015266696e672031302960c81b606082015260800190565b60006020828403121561164257600080fd5b6113b7826113d5565b60006001820161165d5761165d61150d565b5060010190565b600082611673576116736115b1565b500490565b634e487b7160e01b600052604160045260246000fd5b60008261169d5761169d6115b1565b500690565b6000816116b1576116b161150d565b506000190190565b634e487b7160e01b600052603260045260246000fdfea2646970667358221220536c95a65c6514693bb75ce10e09e2c5dca5495c2fa4295124f572f1f3d8763664736f6c63430008180033","opcodes":"PUSH1 0x80 PUSH1 0x40 MSTORE PUSH1 0x32 PUSH1 0x7 SSTORE PUSH2 0x708 PUSH1 0x8 SSTORE PUSH1 0xA PUSH1 0x9 SSTORE CALLVALUE DUP1 ISZERO PUSH2 0x20 JUMPI PUSH1 0x0 DUP1 REVERT JUMPDEST POP PUSH1 0x40 MLOAD PUSH2 0x17CF CODESIZE SUB DUP1 PUSH2 0x17CF DUP4 CODECOPY DUP2 ADD PUSH1 0x40 DUP2 SWAP1 MSTORE PUSH2 0x3F SWAP2 PUSH2 0x8B JUMP JUMPDEST PUSH1 0x0 DUP1 SLOAD CALLER PUSH1 0x1 PUSH1 0x1 PUSH1 0xA0 SHL SUB NOT SWAP2 DUP3 AND OR SWAP1 SWAP2 SSTORE PUSH1 0x1 DUP1 SLOAD SWAP1 SWAP2 AND PUSH1 0x1 PUSH1 0x1 PUSH1 0xA0 SHL SUB SWAP3 SWAP1 SWAP3 AND SWAP2 SWAP1 SWAP2 OR SWAP1 SSTORE TIMESTAMP PUSH1 0xB SSTORE PUSH5 0x12A05F200 PUSH1 0xC SSTORE PUSH8 0x1BC16D674EC80000 PUSH1 0xD SSTORE PUSH2 0xBB JUMP JUMPDEST PUSH1 0x0 PUSH1 0x20 DUP3 DUP5 SUB SLT ISZERO PUSH2 0x9D JUMPI PUSH1 0x0 DUP1 REVERT JUMPDEST DUP2 MLOAD PUSH1 0x1 PUSH1 0x1 PUSH1 0xA0 SHL SUB DUP2 AND DUP2 EQ PUSH2 0xB4 JUMPI PUSH1 0x0 DUP1 REVERT JUMPDEST SWAP4 SWAP3 POP POP POP JUMP JUMPDEST PUSH2 0x1705 DUP1 PUSH2 0xCA PUSH1 0x0 CODECOPY PUSH1 0x0 RETURN INVALID PUSH1 0x80 PUSH1 0x40 MSTORE CALLVALUE DUP1 ISZERO PUSH2 0x10 JUMPI PUSH1 0x0 DUP1 REVERT JUMPDEST POP PUSH1 0x4 CALLDATASIZE LT PUSH2 0x14D JUMPI PUSH1 0x0 CALLDATALOAD PUSH1 0xE0 SHR DUP1 PUSH4 0x7AE0B36A GT PUSH2 0xC3 JUMPI DUP1 PUSH4 0xACED1661 GT PUSH2 0x7C JUMPI DUP1 PUSH4 0xACED1661 EQ PUSH2 0x371 JUMPI DUP1 PUSH4 0xAEFA9D25 EQ PUSH2 0x384 JUMPI DUP1 PUSH4 0xB8221BC4 EQ PUSH2 0x397 JUMPI DUP1 PUSH4 0xBFA88431 EQ PUSH2 0x3A0 JUMPI DUP1 PUSH4 0xC4AA7395 EQ PUSH2 0x3A9 JUMPI DUP1 PUSH4 0xDE5F8D93 EQ PUSH2 0x3B2 JUMPI PUSH1 0x0 DUP1 REVERT JUMPDEST DUP1 PUSH4 0x7AE0B36A EQ PUSH2 0x303 JUMPI DUP1 PUSH4 0x8DA5CB5B EQ PUSH2 0x30C JUMPI DUP1 PUSH4 0x91D3A20F EQ PUSH2 0x337 JUMPI DUP1 PUSH4 0x958E45C5 EQ PUSH2 0x34A JUMPI DUP1 PUSH4 0xA06880C0 EQ PUSH2 0x353 JUMPI DUP1 PUSH4 0xA440248D EQ PUSH2 0x369 JUMPI PUSH1 0x0 DUP1 REVERT JUMPDEST DUP1 PUSH4 0x5C975ABB GT PUSH2 0x115 JUMPI DUP1 PUSH4 0x5C975ABB EQ PUSH2 0x230 JUMPI DUP1 PUSH4 0x61B242C5 EQ PUSH2 0x254 JUMPI DUP1 PUSH4 0x6FF1C9BC EQ PUSH2 0x267 JUMPI DUP1 PUSH4 0x72DAC4F3 EQ PUSH2 0x27A JUMPI DUP1 PUSH4 0x7398AB18 EQ PUSH2 0x283 JUMPI DUP1 PUSH4 0x748747E6 EQ PUSH2 0x2F0 JUMPI PUSH1 0x0 DUP1 REVERT JUMPDEST DUP1 PUSH4 0x9218E91 EQ PUSH2 0x152 JUMPI DUP1 PUSH4 0x23BFF40E EQ PUSH2 0x1DE JUMPI DUP1 PUSH4 0x43F68A49 EQ PUSH2 0x1F3 JUMPI DUP1 PUSH4 0x4FC3F41A EQ PUSH2 0x206 JUMPI DUP1 PUSH4 0x55AC68F6 EQ PUSH2 0x219 JUMPI JUMPDEST PUSH1 0x0 DUP1 REVERT JUMPDEST PUSH1 0x2 DUP1 SLOAD PUSH1 0x3 SLOAD PUSH1 0x4 SLOAD PUSH1 0x5 SLOAD PUSH1 0x6 SLOAD PUSH2 0x18E SWAP6 DUP6 DUP2 SIGNEXTEND SWAP6 PUSH4 0x1000000 DUP2 DIV SWAP1 SWAP2 SIGNEXTEND SWAP5 PUSH1 0x1 PUSH1 0x30 SHL SWAP1 SWAP2 DIV PUSH1 0x1 PUSH1 0x1 PUSH1 0x80 SHL SUB AND SWAP4 SWAP1 SWAP3 SWAP1 SWAP2 DUP8 JUMP JUMPDEST PUSH1 0x40 DUP1 MLOAD PUSH1 0x2 SWAP9 DUP10 SIGNEXTEND DUP2 MSTORE SWAP7 SWAP1 SWAP8 SIGNEXTEND PUSH1 0x20 DUP8 ADD MSTORE PUSH1 0x1 PUSH1 0x1 PUSH1 0x80 SHL SUB SWAP1 SWAP5 AND SWAP6 DUP6 ADD SWAP6 SWAP1 SWAP6 MSTORE PUSH1 0x60 DUP5 ADD SWAP2 SWAP1 SWAP2 MSTORE PUSH1 0x80 DUP4 ADD MSTORE PUSH1 0xA0 DUP3 ADD SWAP3 SWAP1 SWAP3 MSTORE PUSH1 0xC0 DUP2 ADD SWAP2 SWAP1 SWAP2 MSTORE PUSH1 0xE0 ADD JUMPDEST PUSH1 0x40 MLOAD DUP1 SWAP2 SUB SWAP1 RETURN JUMPDEST PUSH2 0x1F1 PUSH2 0x1EC CALLDATASIZE PUSH1 0x4 PUSH2 0x1303 JUMP JUMPDEST PUSH2 0x3BA JUMP JUMPDEST STOP JUMPDEST PUSH2 0x1F1 PUSH2 0x201 CALLDATASIZE PUSH1 0x4 PUSH2 0x1303 JUMP JUMPDEST PUSH2 0x450 JUMP JUMPDEST PUSH2 0x1F1 PUSH2 0x214 CALLDATASIZE PUSH1 0x4 PUSH2 0x1303 JUMP JUMPDEST PUSH2 0x4DD JUMP JUMPDEST PUSH2 0x222 PUSH1 0xA SLOAD DUP2 JUMP JUMPDEST PUSH1 0x40 MLOAD SWAP1 DUP2 MSTORE PUSH1 0x20 ADD PUSH2 0x1D5 JUMP JUMPDEST PUSH1 0x1 SLOAD PUSH2 0x244 SWAP1 PUSH1 0x1 PUSH1 0xA0 SHL SWAP1 DIV PUSH1 0xFF AND DUP2 JUMP JUMPDEST PUSH1 0x40 MLOAD SWAP1 ISZERO ISZERO DUP2 MSTORE PUSH1 0x20 ADD PUSH2 0x1D5 JUMP JUMPDEST PUSH2 0x1F1 PUSH2 0x262 CALLDATASIZE PUSH1 0x4 PUSH2 0x131C JUMP JUMPDEST PUSH2 0x56E JUMP JUMPDEST PUSH2 0x1F1 PUSH2 0x275 CALLDATASIZE PUSH1 0x4 PUSH2 0x138E JUMP JUMPDEST PUSH2 0x630 JUMP JUMPDEST PUSH2 0x222 PUSH1 0x9 SLOAD DUP2 JUMP JUMPDEST PUSH2 0x28B PUSH2 0x734 JUMP JUMPDEST PUSH1 0x40 MLOAD PUSH2 0x1D5 SWAP2 SWAP1 PUSH1 0x0 PUSH1 0xE0 DUP3 ADD SWAP1 POP DUP3 MLOAD PUSH1 0x2 SIGNEXTEND DUP3 MSTORE PUSH1 0x20 DUP4 ADD MLOAD PUSH1 0x2 SIGNEXTEND PUSH1 0x20 DUP4 ADD MSTORE PUSH1 0x1 PUSH1 0x1 PUSH1 0x80 SHL SUB PUSH1 0x40 DUP5 ADD MLOAD AND PUSH1 0x40 DUP4 ADD MSTORE PUSH1 0x60 DUP4 ADD MLOAD PUSH1 0x60 DUP4 ADD MSTORE PUSH1 0x80 DUP4 ADD MLOAD PUSH1 0x80 DUP4 ADD MSTORE PUSH1 0xA0 DUP4 ADD MLOAD PUSH1 0xA0 DUP4 ADD MSTORE PUSH1 0xC0 DUP4 ADD MLOAD PUSH1 0xC0 DUP4 ADD MSTORE SWAP3 SWAP2 POP POP JUMP JUMPDEST PUSH2 0x1F1 PUSH2 0x2FE CALLDATASIZE PUSH1 0x4 PUSH2 0x138E JUMP JUMPDEST PUSH2 0x7E0 JUMP JUMPDEST PUSH2 0x222 PUSH1 0xB SLOAD DUP2 JUMP JUMPDEST PUSH1 0x0 SLOAD PUSH2 0x31F SWAP1 PUSH1 0x1 PUSH1 0x1 PUSH1 0xA0 SHL SUB AND DUP2 JUMP JUMPDEST PUSH1 0x40 MLOAD PUSH1 0x1 PUSH1 0x1 PUSH1 0xA0 SHL SUB SWAP1 SWAP2 AND DUP2 MSTORE PUSH1 0x20 ADD PUSH2 0x1D5 JUMP JUMPDEST PUSH2 0x1F1 PUSH2 0x345 CALLDATASIZE PUSH1 0x4 PUSH2 0x13EC JUMP JUMPDEST PUSH2 0x8B5 JUMP JUMPDEST PUSH2 0x222 PUSH1 0xC SLOAD DUP2 JUMP JUMPDEST PUSH2 0x35B PUSH2 0xB07 JUMP JUMPDEST PUSH1 0x40 MLOAD PUSH2 0x1D5 SWAP3 SWAP2 SWAP1 PUSH2 0x145D JUMP JUMPDEST PUSH2 0x222 PUSH2 0xC1B JUMP JUMPDEST PUSH1 0x1 SLOAD PUSH2 0x31F SWAP1 PUSH1 0x1 PUSH1 0x1 PUSH1 0xA0 SHL SUB AND DUP2 JUMP JUMPDEST PUSH2 0x1F1 PUSH2 0x392 CALLDATASIZE PUSH1 0x4 PUSH2 0x1499 JUMP JUMPDEST PUSH2 0xC52 JUMP JUMPDEST PUSH2 0x222 PUSH1 0x8 SLOAD DUP2 JUMP JUMPDEST PUSH2 0x222 PUSH1 0xD SLOAD DUP2 JUMP JUMPDEST PUSH2 0x222 PUSH1 0x7 SLOAD DUP2 JUMP JUMPDEST PUSH2 0x1F1 PUSH2 0x109D JUMP JUMPDEST PUSH1 0x0 SLOAD PUSH1 0x1 PUSH1 0x1 PUSH1 0xA0 SHL SUB AND CALLER EQ PUSH2 0x3ED JUMPI PUSH1 0x40 MLOAD PUSH3 0x461BCD PUSH1 0xE5 SHL DUP2 MSTORE PUSH1 0x4 ADD PUSH2 0x3E4 SWAP1 PUSH2 0x14B1 JUMP JUMPDEST PUSH1 0x40 MLOAD DUP1 SWAP2 SUB SWAP1 REVERT JUMPDEST PUSH1 0x1 DUP2 LT ISZERO DUP1 ISZERO PUSH2 0x3FF JUMPI POP PUSH1 0x30 DUP2 GT ISZERO JUMPDEST PUSH2 0x44B JUMPI PUSH1 0x40 MLOAD PUSH3 0x461BCD PUSH1 0xE5 SHL DUP2 MSTORE PUSH1 0x20 PUSH1 0x4 DUP3 ADD MSTORE PUSH1 0x17 PUSH1 0x24 DUP3 ADD MSTORE PUSH32 0x4C504B65657065723A20696E76616C6964206C696D6974000000000000000000 PUSH1 0x44 DUP3 ADD MSTORE PUSH1 0x64 ADD PUSH2 0x3E4 JUMP JUMPDEST PUSH1 0x9 SSTORE JUMP JUMPDEST PUSH1 0x0 SLOAD PUSH1 0x1 PUSH1 0x1 PUSH1 0xA0 SHL SUB AND CALLER EQ PUSH2 0x47A JUMPI PUSH1 0x40 MLOAD PUSH3 0x461BCD PUSH1 0xE5 SHL DUP2 MSTORE PUSH1 0x4 ADD PUSH2 0x3E4 SWAP1 PUSH2 0x14B1 JUMP JUMPDEST PUSH2 0x1F4 DUP2 GT ISZERO PUSH2 0x4D8 JUMPI PUSH1 0x40 MLOAD PUSH3 0x461BCD PUSH1 0xE5 SHL DUP2 MSTORE PUSH1 0x20 PUSH1 0x4 DUP3 ADD MSTORE PUSH1 0x24 DUP1 DUP3 ADD MSTORE PUSH32 0x4C504B65657065723A20736C69707061676520746F6F206869676820286D6178 PUSH1 0x44 DUP3 ADD MSTORE PUSH4 0x20352529 PUSH1 0xE0 SHL PUSH1 0x64 DUP3 ADD MSTORE PUSH1 0x84 ADD PUSH2 0x3E4 JUMP JUMPDEST PUSH1 0x7 SSTORE JUMP JUMPDEST PUSH1 0x0 SLOAD PUSH1 0x1 PUSH1 0x1 PUSH1 0xA0 SHL SUB AND CALLER EQ PUSH2 0x507 JUMPI PUSH1 0x40 MLOAD PUSH3 0x461BCD PUSH1 0xE5 SHL DUP2 MSTORE PUSH1 0x4 ADD PUSH2 0x3E4 SWAP1 PUSH2 0x14B1 JUMP JUMPDEST PUSH2 0x12C DUP2 LT ISZERO PUSH2 0x569 JUMPI PUSH1 0x40 MLOAD PUSH3 0x461BCD PUSH1 0xE5 SHL DUP2 MSTORE PUSH1 0x20 PUSH1 0x4 DUP3 ADD MSTORE PUSH1 0x27 PUSH1 0x24 DUP3 ADD MSTORE PUSH32 0x4C504B65657065723A20636F6F6C646F776E20746F6F2073686F727420286D69 PUSH1 0x44 DUP3 ADD MSTORE PUSH7 0x6E20356D696E29 PUSH1 0xC8 SHL PUSH1 0x64 DUP3 ADD MSTORE PUSH1 0x84 ADD PUSH2 0x3E4 JUMP JUMPDEST PUSH1 0x8 SSTORE JUMP JUMPDEST PUSH1 0x0 SLOAD PUSH1 0x1 PUSH1 0x1 PUSH1 0xA0 SHL SUB AND CALLER EQ DUP1 PUSH2 0x591 JUMPI POP PUSH1 0x1 SLOAD PUSH1 0x1 PUSH1 0x1 PUSH1 0xA0 SHL SUB AND CALLER EQ JUMPDEST PUSH2 0x5DD JUMPI PUSH1 0x40 MLOAD PUSH3 0x461BCD PUSH1 0xE5 SHL DUP2 MSTORE PUSH1 0x20 PUSH1 0x4 DUP3 ADD MSTORE PUSH1 0x18 PUSH1 0x24 DUP3 ADD MSTORE PUSH32 0x4C504B65657065723A206E6F7420617574686F72697A65640000000000000000 PUSH1 0x44 DUP3 ADD MSTORE PUSH1 0x64 ADD PUSH2 0x3E4 JUMP JUMPDEST PUSH1 0x1 DUP1 SLOAD PUSH1 0xFF PUSH1 0xA0 SHL NOT AND PUSH1 0x1 PUSH1 0xA0 SHL OR SWAP1 SSTORE PUSH1 0x40 MLOAD CALLER SWAP1 PUSH32 0xF0CA201A259F21761E7392673B3E9269933E13069F2081AF411CB4079825F842 SWAP1 PUSH2 0x624 SWAP1 DUP6 SWAP1 DUP6 SWAP1 PUSH2 0x14DE JUMP JUMPDEST PUSH1 0x40 MLOAD DUP1 SWAP2 SUB SWAP1 LOG2 POP POP JUMP JUMPDEST PUSH1 0x0 SLOAD PUSH1 0x1 PUSH1 0x1 PUSH1 0xA0 SHL SUB AND CALLER EQ PUSH2 0x65A JUMPI PUSH1 0x40 MLOAD PUSH3 0x461BCD PUSH1 0xE5 SHL DUP2 MSTORE PUSH1 0x4 ADD PUSH2 0x3E4 SWAP1 PUSH2 0x14B1 JUMP JUMPDEST PUSH1 0x1 PUSH1 0x1 PUSH1 0xA0 SHL SUB DUP2 AND PUSH2 0x6B0 JUMPI PUSH1 0x40 MLOAD PUSH3 0x461BCD PUSH1 0xE5 SHL DUP2 MSTORE PUSH1 0x20 PUSH1 0x4 DUP3 ADD MSTORE PUSH1 0x19 PUSH1 0x24 DUP3 ADD MSTORE PUSH32 0x4C504B65657065723A20696E76616C6964206164647265737300000000000000 PUSH1 0x44 DUP3 ADD MSTORE PUSH1 0x64 ADD PUSH2 0x3E4 JUMP JUMPDEST PUSH1 0xC DUP1 SLOAD PUSH1 0xD DUP1 SLOAD PUSH1 0x0 SWAP4 DUP5 SWAP1 SSTORE SWAP3 SWAP1 SSTORE PUSH1 0x2 DUP1 SLOAD PUSH1 0x1 PUSH1 0x30 SHL PUSH1 0x1 PUSH1 0xB0 SHL SUB NOT AND SWAP1 SSTORE PUSH1 0x1 DUP1 SLOAD PUSH1 0xFF PUSH1 0xA0 SHL NOT AND PUSH1 0x1 PUSH1 0xA0 SHL OR SWAP1 SSTORE PUSH1 0x40 DUP1 MLOAD DUP3 DUP2 MSTORE PUSH1 0x20 DUP2 ADD DUP5 SWAP1 MSTORE SWAP2 SWAP3 SWAP2 PUSH1 0x1 PUSH1 0x1 PUSH1 0xA0 SHL SUB DUP6 AND SWAP2 PUSH32 0xBB757047C2B5F3974FE26B7C10F732E7BCE710B0952A71082702781E62AE0595 SWAP2 ADD JUMPDEST PUSH1 0x40 MLOAD DUP1 SWAP2 SUB SWAP1 LOG2 POP POP POP JUMP JUMPDEST PUSH2 0x783 PUSH1 0x40 MLOAD DUP1 PUSH1 0xE0 ADD PUSH1 0x40 MSTORE DUP1 PUSH1 0x0 PUSH1 0x2 SIGNEXTEND DUP2 MSTORE PUSH1 0x20 ADD PUSH1 0x0 PUSH1 0x2 SIGNEXTEND DUP2 MSTORE PUSH1 0x20 ADD PUSH1 0x0 PUSH1 0x1 PUSH1 0x1 PUSH1 0x80 SHL SUB AND DUP2 MSTORE PUSH1 0x20 ADD PUSH1 0x0 DUP2 MSTORE PUSH1 0x20 ADD PUSH1 0x0 DUP2 MSTORE PUSH1 0x20 ADD PUSH1 0x0 DUP2 MSTORE PUSH1 0x20 ADD PUSH1 0x0 DUP2 MSTORE POP SWAP1 JUMP JUMPDEST POP PUSH1 0x40 DUP1 MLOAD PUSH1 0xE0 DUP2 ADD DUP3 MSTORE PUSH1 0x2 DUP1 SLOAD DUP1 DUP3 SIGNEXTEND DUP4 MSTORE PUSH4 0x1000000 DUP2 DIV SWAP1 SWAP2 SIGNEXTEND PUSH1 0x20 DUP4 ADD MSTORE PUSH1 0x1 PUSH1 0x30 SHL SWAP1 DIV PUSH1 0x1 PUSH1 0x1 PUSH1 0x80 SHL SUB AND SWAP2 DUP2 ADD SWAP2 SWAP1 SWAP2 MSTORE PUSH1 0x3 SLOAD PUSH1 0x60 DUP3 ADD MSTORE PUSH1 0x4 SLOAD PUSH1 0x80 DUP3 ADD MSTORE PUSH1 0x5 SLOAD PUSH1 0xA0 DUP3 ADD MSTORE PUSH1 0x6 SLOAD PUSH1 0xC0 DUP3 ADD MSTORE SWAP1 JUMP JUMPDEST PUSH1 0x0 SLOAD PUSH1 0x1 PUSH1 0x1 PUSH1 0xA0 SHL SUB AND CALLER EQ PUSH2 0x80A JUMPI PUSH1 0x40 MLOAD PUSH3 0x461BCD PUSH1 0xE5 SHL DUP2 MSTORE PUSH1 0x4 ADD PUSH2 0x3E4 SWAP1 PUSH2 0x14B1 JUMP JUMPDEST PUSH1 0x1 PUSH1 0x1 PUSH1 0xA0 SHL SUB DUP2 AND PUSH2 0x859 JUMPI PUSH1 0x40 MLOAD PUSH3 0x461BCD PUSH1 0xE5 SHL DUP2 MSTORE PUSH1 0x20 PUSH1 0x4 DUP3 ADD MSTORE PUSH1 0x16 PUSH1 0x24 DUP3 ADD MSTORE PUSH22 0x4C504B65657065723A207A65726F2061646472657373 PUSH1 0x50 SHL PUSH1 0x44 DUP3 ADD MSTORE PUSH1 0x64 ADD PUSH2 0x3E4 JUMP JUMPDEST PUSH1 0x1 SLOAD PUSH1 0x40 MLOAD PUSH1 0x1 PUSH1 0x1 PUSH1 0xA0 SHL SUB DUP1 DUP5 AND SWAP3 AND SWAP1 PUSH32 0x53D3703FE259DEF57584466F32D1B94C30278008C683C21B04501C4966F13A69 SWAP1 PUSH1 0x0 SWAP1 LOG3 PUSH1 0x1 DUP1 SLOAD PUSH1 0x1 PUSH1 0x1 PUSH1 0xA0 SHL SUB NOT AND PUSH1 0x1 PUSH1 0x1 PUSH1 0xA0 SHL SUB SWAP3 SWAP1 SWAP3 AND SWAP2 SWAP1 SWAP2 OR SWAP1 SSTORE JUMP JUMPDEST PUSH1 0x1 SLOAD PUSH1 0x1 PUSH1 0x1 PUSH1 0xA0 SHL SUB AND CALLER EQ PUSH2 0x906 JUMPI PUSH1 0x40 MLOAD PUSH3 0x461BCD PUSH1 0xE5 SHL DUP2 MSTORE PUSH1 0x20 PUSH1 0x4 DUP3 ADD MSTORE PUSH1 0x14 PUSH1 0x24 DUP3 ADD MSTORE PUSH20 0x262825B2B2B832B91D103737BA1035B2B2B832B9 PUSH1 0x61 SHL PUSH1 0x44 DUP3 ADD MSTORE PUSH1 0x64 ADD PUSH2 0x3E4 JUMP JUMPDEST PUSH1 0x1 SLOAD PUSH1 0x1 PUSH1 0xA0 SHL SWAP1 DIV PUSH1 0xFF AND ISZERO PUSH2 0x960 JUMPI PUSH1 0x40 MLOAD PUSH3 0x461BCD PUSH1 0xE5 SHL DUP2 MSTORE PUSH1 0x20 PUSH1 0x4 DUP3 ADD DUP2 SWAP1 MSTORE PUSH1 0x24 DUP3 ADD MSTORE PUSH32 0x4C504B65657065723A206369726375697420627265616B657220616374697665 PUSH1 0x44 DUP3 ADD MSTORE PUSH1 0x64 ADD PUSH2 0x3E4 JUMP JUMPDEST PUSH1 0x2 SLOAD PUSH1 0x1 PUSH1 0x30 SHL SWAP1 DIV PUSH1 0x1 PUSH1 0x1 PUSH1 0x80 SHL SUB AND ISZERO PUSH2 0x9C0 JUMPI PUSH1 0x40 MLOAD PUSH3 0x461BCD PUSH1 0xE5 SHL DUP2 MSTORE PUSH1 0x20 PUSH1 0x4 DUP3 ADD MSTORE PUSH1 0x1F PUSH1 0x24 DUP3 ADD MSTORE PUSH32 0x4C504B65657065723A20706F736974696F6E20616C7265616479206F70656E00 PUSH1 0x44 DUP3 ADD MSTORE PUSH1 0x64 ADD PUSH2 0x3E4 JUMP JUMPDEST DUP3 PUSH1 0x2 SIGNEXTEND DUP5 PUSH1 0x2 SIGNEXTEND SLT PUSH2 0xA15 JUMPI PUSH1 0x40 MLOAD PUSH3 0x461BCD PUSH1 0xE5 SHL DUP2 MSTORE PUSH1 0x20 PUSH1 0x4 DUP3 ADD MSTORE PUSH1 0x17 PUSH1 0x24 DUP3 ADD MSTORE PUSH32 0x4C504B65657065723A20696E76616C6964207469636B73000000000000000000 PUSH1 0x44 DUP3 ADD MSTORE PUSH1 0x64 ADD PUSH2 0x3E4 JUMP JUMPDEST PUSH1 0x0 DUP3 GT PUSH2 0xA5F JUMPI PUSH1 0x40 MLOAD PUSH3 0x461BCD PUSH1 0xE5 SHL DUP2 MSTORE PUSH1 0x20 PUSH1 0x4 DUP3 ADD MSTORE PUSH1 0x17 PUSH1 0x24 DUP3 ADD MSTORE PUSH23 0x4C504B65657065723A20696E76616C6964207072696365 PUSH1 0x48 SHL PUSH1 0x44 DUP3 ADD MSTORE PUSH1 0x64 ADD PUSH2 0x3E4 JUMP JUMPDEST PUSH1 0x2 DUP1 SLOAD PUSH1 0x3 DUP5 SWAP1 SSTORE PUSH1 0x1 PUSH1 0x1 PUSH1 0x80 SHL SUB DUP4 AND PUSH1 0x1 PUSH1 0x30 SHL DUP2 MUL PUSH1 0x1 PUSH1 0x30 SHL PUSH1 0x1 PUSH1 0xB0 SHL SUB NOT PUSH3 0xFFFFFF DUP9 DUP2 AND PUSH4 0x1000000 MUL PUSH6 0xFFFFFFFFFFFF NOT SWAP1 SWAP6 AND SWAP1 DUP11 AND OR SWAP4 SWAP1 SWAP4 OR SWAP3 SWAP1 SWAP3 AND SWAP2 SWAP1 SWAP2 OR DUP3 SSTORE TIMESTAMP PUSH1 0x5 SSTORE PUSH1 0x0 PUSH1 0x6 SSTORE PUSH1 0x40 DUP1 MLOAD DUP8 DUP5 SIGNEXTEND DUP2 MSTORE SWAP3 DUP7 SWAP1 SIGNEXTEND PUSH1 0x20 DUP5 ADD MSTORE DUP3 ADD DUP5 SWAP1 MSTORE PUSH1 0x60 DUP3 ADD MSTORE PUSH32 0xBB8B37201107FF6D4F7234846B4D4934D8F679CF3AE8043305A77E6F1FE283A4 SWAP1 PUSH1 0x80 ADD PUSH1 0x40 MLOAD DUP1 SWAP2 SUB SWAP1 LOG1 POP POP POP POP JUMP JUMPDEST PUSH1 0x1 SLOAD PUSH1 0x0 SWAP1 PUSH1 0x60 SWAP1 PUSH1 0x1 PUSH1 0xA0 SHL SWAP1 DIV PUSH1 0xFF AND ISZERO PUSH2 0xB53 JUMPI POP POP PUSH1 0x40 DUP1 MLOAD DUP1 DUP3 ADD SWAP1 SWAP2 MSTORE PUSH1 0x16 DUP2 MSTORE PUSH22 0x6369726375697420627265616B657220616374697665 PUSH1 0x50 SHL PUSH1 0x20 DUP3 ADD MSTORE PUSH1 0x0 SWAP2 JUMP JUMPDEST PUSH1 0x8 SLOAD PUSH1 0x5 SLOAD PUSH2 0xB63 SWAP2 SWAP1 PUSH2 0x1523 JUMP JUMPDEST TIMESTAMP LT ISZERO PUSH2 0xBBF JUMPI PUSH1 0x0 TIMESTAMP PUSH1 0x8 SLOAD PUSH1 0x2 PUSH1 0x3 ADD SLOAD PUSH2 0xB80 SWAP2 SWAP1 PUSH2 0x1523 JUMP JUMPDEST PUSH2 0xB8A SWAP2 SWAP1 PUSH2 0x153C JUMP JUMPDEST SWAP1 POP PUSH1 0x0 PUSH2 0xB97 DUP3 PUSH2 0x1101 JUMP JUMPDEST PUSH1 0x40 MLOAD PUSH1 0x20 ADD PUSH2 0xBA7 SWAP2 SWAP1 PUSH2 0x154F JUMP JUMPDEST PUSH1 0x40 MLOAD PUSH1 0x20 DUP2 DUP4 SUB SUB DUP2 MSTORE SWAP1 PUSH1 0x40 MSTORE SWAP3 POP SWAP3 POP POP SWAP1 SWAP2 JUMP JUMPDEST PUSH1 0x9 SLOAD PUSH1 0xA SLOAD LT PUSH2 0xBFB JUMPI POP POP PUSH1 0x40 DUP1 MLOAD DUP1 DUP3 ADD SWAP1 SWAP2 MSTORE PUSH1 0x13 DUP2 MSTORE PUSH19 0x19185A5B1E481B1A5B5A5D081C995858DA1959 PUSH1 0x6A SHL PUSH1 0x20 DUP3 ADD MSTORE PUSH1 0x0 SWAP2 JUMP JUMPDEST POP POP PUSH1 0x40 DUP1 MLOAD DUP1 DUP3 ADD SWAP1 SWAP2 MSTORE PUSH1 0x2 DUP2 MSTORE PUSH2 0x6F6B PUSH1 0xF0 SHL PUSH1 0x20 DUP3 ADD MSTORE PUSH1 0x1 SWAP2 JUMP JUMPDEST PUSH1 0x0 DUP1 PUSH1 0x8 SLOAD PUSH1 0x2 PUSH1 0x3 ADD SLOAD PUSH2 0xC31 SWAP2 SWAP1 PUSH2 0x1523 JUMP JUMPDEST SWAP1 POP DUP1 TIMESTAMP LT PUSH2 0xC42 JUMPI PUSH1 0x0 SWAP2 POP POP SWAP1 JUMP JUMPDEST PUSH2 0xC4C TIMESTAMP DUP3 PUSH2 0x153C JUMP JUMPDEST SWAP2 POP POP SWAP1 JUMP JUMPDEST PUSH1 0x1 SLOAD PUSH1 0x1 PUSH1 0x1 PUSH1 0xA0 SHL SUB AND CALLER EQ PUSH2 0xCA3 JUMPI PUSH1 0x40 MLOAD PUSH3 0x461BCD PUSH1 0xE5 SHL DUP2 MSTORE PUSH1 0x20 PUSH1 0x4 DUP3 ADD MSTORE PUSH1 0x14 PUSH1 0x24 DUP3 ADD MSTORE PUSH20 0x262825B2B2B832B91D103737BA1035B2B2B832B9 PUSH1 0x61 SHL PUSH1 0x44 DUP3 ADD MSTORE PUSH1 0x64 ADD PUSH2 0x3E4 JUMP JUMPDEST PUSH1 0x1 SLOAD PUSH1 0x1 PUSH1 0xA0 SHL SWAP1 DIV PUSH1 0xFF AND ISZERO PUSH2 0xCFD JUMPI PUSH1 0x40 MLOAD PUSH3 0x461BCD PUSH1 0xE5 SHL DUP2 MSTORE PUSH1 0x20 PUSH1 0x4 DUP3 ADD DUP2 SWAP1 MSTORE PUSH1 0x24 DUP3 ADD MSTORE PUSH32 0x4C504B65657065723A206369726375697420627265616B657220616374697665 PUSH1 0x44 DUP3 ADD MSTORE PUSH1 0x64 ADD PUSH2 0x3E4 JUMP JUMPDEST PUSH1 0x8 SLOAD PUSH1 0x5 SLOAD PUSH2 0xD0D SWAP2 SWAP1 PUSH2 0x1523 JUMP JUMPDEST TIMESTAMP LT ISZERO PUSH2 0xD5C JUMPI PUSH1 0x40 MLOAD PUSH3 0x461BCD PUSH1 0xE5 SHL DUP2 MSTORE PUSH1 0x20 PUSH1 0x4 DUP3 ADD MSTORE PUSH1 0x1D PUSH1 0x24 DUP3 ADD MSTORE PUSH32 0x4C504B65657065723A20636F6F6C646F776E206E6F7420706173736564000000 PUSH1 0x44 DUP3 ADD MSTORE PUSH1 0x64 ADD PUSH2 0x3E4 JUMP JUMPDEST PUSH1 0xB SLOAD PUSH2 0xD6C SWAP1 PUSH3 0x15180 PUSH2 0x1523 JUMP JUMPDEST TIMESTAMP LT PUSH2 0xD7C JUMPI PUSH1 0x0 PUSH1 0xA SSTORE TIMESTAMP PUSH1 0xB SSTORE JUMPDEST PUSH1 0x9 SLOAD PUSH1 0xA SLOAD LT PUSH2 0xDDF JUMPI PUSH1 0x40 MLOAD PUSH3 0x461BCD PUSH1 0xE5 SHL DUP2 MSTORE PUSH1 0x20 PUSH1 0x4 DUP3 ADD MSTORE PUSH1 0x27 PUSH1 0x24 DUP3 ADD MSTORE PUSH32 0x4C504B65657065723A206461696C7920726562616C616E6365206C696D697420 PUSH1 0x44 DUP3 ADD MSTORE PUSH7 0x1C995858DA1959 PUSH1 0xCA SHL PUSH1 0x64 DUP3 ADD MSTORE PUSH1 0x84 ADD PUSH2 0x3E4 JUMP JUMPDEST PUSH2 0xDEF PUSH1 0x40 DUP3 ADD PUSH1 0x20 DUP4 ADD PUSH2 0x1596 JUMP JUMPDEST PUSH1 0x2 SIGNEXTEND PUSH2 0xDFF PUSH1 0x20 DUP4 ADD DUP4 PUSH2 0x1596 JUMP JUMPDEST PUSH1 0x2 SIGNEXTEND SLT PUSH2 0xE4F JUMPI PUSH1 0x40 MLOAD PUSH3 0x461BCD PUSH1 0xE5 SHL DUP2 MSTORE PUSH1 0x20 PUSH1 0x4 DUP3 ADD MSTORE PUSH1 0x1C PUSH1 0x24 DUP3 ADD MSTORE PUSH32 0x4C504B65657065723A20696E76616C6964207469636B2072616E676500000000 PUSH1 0x44 DUP3 ADD MSTORE PUSH1 0x64 ADD PUSH2 0x3E4 JUMP JUMPDEST PUSH1 0xA PUSH2 0xE5E PUSH1 0x20 DUP4 ADD DUP4 PUSH2 0x1596 JUMP JUMPDEST PUSH2 0xE68 SWAP2 SWAP1 PUSH2 0x15C7 JUMP JUMPDEST PUSH1 0x2 SIGNEXTEND ISZERO PUSH2 0xE88 JUMPI PUSH1 0x40 MLOAD PUSH3 0x461BCD PUSH1 0xE5 SHL DUP2 MSTORE PUSH1 0x4 ADD PUSH2 0x3E4 SWAP1 PUSH2 0x15E9 JUMP JUMPDEST PUSH1 0xA PUSH2 0xE9A PUSH1 0x40 DUP4 ADD PUSH1 0x20 DUP5 ADD PUSH2 0x1596 JUMP JUMPDEST PUSH2 0xEA4 SWAP2 SWAP1 PUSH2 0x15C7 JUMP JUMPDEST PUSH1 0x2 SIGNEXTEND ISZERO PUSH2 0xEC4 JUMPI PUSH1 0x40 MLOAD PUSH3 0x461BCD PUSH1 0xE5 SHL DUP2 MSTORE PUSH1 0x4 ADD PUSH2 0x3E4 SWAP1 PUSH2 0x15E9 JUMP JUMPDEST PUSH1 0x0 DUP2 PUSH1 0x40 ADD CALLDATALOAD GT PUSH2 0xF12 JUMPI PUSH1 0x40 MLOAD PUSH3 0x461BCD PUSH1 0xE5 SHL DUP2 MSTORE PUSH1 0x20 PUSH1 0x4 DUP3 ADD MSTORE PUSH1 0x17 PUSH1 0x24 DUP3 ADD MSTORE PUSH23 0x4C504B65657065723A20696E76616C6964207072696365 PUSH1 0x48 SHL PUSH1 0x44 DUP3 ADD MSTORE PUSH1 0x64 ADD PUSH2 0x3E4 JUMP JUMPDEST PUSH2 0xF1B DUP2 PUSH2 0x1208 JUMP JUMPDEST PUSH1 0x2 DUP1 SLOAD DUP1 DUP3 SIGNEXTEND SWAP2 PUSH4 0x1000000 SWAP1 SWAP2 DIV SWAP1 SIGNEXTEND PUSH2 0xF3A PUSH1 0x20 DUP5 ADD DUP5 PUSH2 0x1596 JUMP JUMPDEST PUSH1 0x2 DUP1 SLOAD PUSH3 0xFFFFFF NOT AND PUSH3 0xFFFFFF SWAP3 SWAP1 SWAP3 AND SWAP2 SWAP1 SWAP2 OR SWAP1 SSTORE PUSH2 0xF62 PUSH1 0x40 DUP5 ADD PUSH1 0x20 DUP6 ADD PUSH2 0x1596 JUMP JUMPDEST PUSH1 0x2 DUP1 SLOAD PUSH3 0xFFFFFF SWAP3 SWAP1 SWAP3 AND PUSH4 0x1000000 MUL PUSH6 0xFFFFFF000000 NOT SWAP1 SWAP3 AND SWAP2 SWAP1 SWAP2 OR SWAP1 SSTORE PUSH1 0x40 DUP4 ADD CALLDATALOAD PUSH1 0x3 SSTORE TIMESTAMP PUSH1 0x5 SSTORE PUSH1 0x6 DUP1 SLOAD PUSH1 0x1 SWAP2 SWAP1 PUSH1 0x0 SWAP1 PUSH2 0xFA7 SWAP1 DUP5 SWAP1 PUSH2 0x1523 JUMP JUMPDEST SWAP1 SWAP2 SSTORE POP PUSH1 0x0 SWAP1 POP PUSH2 0xFBF PUSH1 0xC0 DUP6 ADD PUSH1 0xA0 DUP7 ADD PUSH2 0x1630 JUMP JUMPDEST PUSH1 0x1 PUSH1 0x1 PUSH1 0x80 SHL SUB AND GT ISZERO PUSH2 0x100A JUMPI PUSH2 0xFDE PUSH1 0xC0 DUP5 ADD PUSH1 0xA0 DUP6 ADD PUSH2 0x1630 JUMP JUMPDEST PUSH1 0x2 DUP1 SLOAD PUSH1 0x1 PUSH1 0x1 PUSH1 0x80 SHL SUB SWAP3 SWAP1 SWAP3 AND PUSH1 0x1 PUSH1 0x30 SHL MUL PUSH1 0x1 PUSH1 0x30 SHL PUSH1 0x1 PUSH1 0xB0 SHL SUB NOT SWAP1 SWAP3 AND SWAP2 SWAP1 SWAP2 OR SWAP1 SSTORE JUMPDEST PUSH1 0x1 PUSH1 0xA PUSH1 0x0 DUP3 DUP3 SLOAD PUSH2 0x101D SWAP2 SWAP1 PUSH2 0x1523 JUMP JUMPDEST SWAP1 SWAP2 SSTORE POP CALLER SWAP1 POP PUSH32 0xACA038B186E51242EEE9E987B8D480264E3D06034853437A40B9D32DB2CF4B43 DUP4 DUP4 PUSH2 0x1054 PUSH1 0x20 DUP9 ADD DUP9 PUSH2 0x1596 JUMP JUMPDEST PUSH2 0x1064 PUSH1 0x40 DUP10 ADD PUSH1 0x20 DUP11 ADD PUSH2 0x1596 JUMP JUMPDEST PUSH1 0x40 DUP1 MLOAD PUSH1 0x2 SWAP6 DUP7 SIGNEXTEND DUP2 MSTORE SWAP4 DUP6 SIGNEXTEND PUSH1 0x20 DUP6 ADD MSTORE SWAP2 DUP5 SIGNEXTEND DUP4 DUP4 ADD MSTORE SWAP1 SWAP3 SIGNEXTEND PUSH1 0x60 DUP3 ADD MSTORE SWAP1 DUP7 ADD CALLDATALOAD PUSH1 0x80 DUP3 ADD MSTORE TIMESTAMP PUSH1 0xA0 DUP3 ADD MSTORE PUSH1 0xC0 ADD PUSH2 0x727 JUMP JUMPDEST PUSH1 0x0 SLOAD PUSH1 0x1 PUSH1 0x1 PUSH1 0xA0 SHL SUB AND CALLER EQ PUSH2 0x10C7 JUMPI PUSH1 0x40 MLOAD PUSH3 0x461BCD PUSH1 0xE5 SHL DUP2 MSTORE PUSH1 0x4 ADD PUSH2 0x3E4 SWAP1 PUSH2 0x14B1 JUMP JUMPDEST PUSH1 0x1 DUP1 SLOAD PUSH1 0xFF PUSH1 0xA0 SHL NOT AND SWAP1 SSTORE PUSH1 0x40 MLOAD CALLER SWAP1 PUSH32 0x7663EE3F7C1099057FC9FC555EFB675B77FE234386EC977B12F15D5F24FD030 SWAP1 PUSH1 0x0 SWAP1 LOG2 JUMP JUMPDEST PUSH1 0x60 DUP2 PUSH1 0x0 SUB PUSH2 0x1128 JUMPI POP POP PUSH1 0x40 DUP1 MLOAD DUP1 DUP3 ADD SWAP1 SWAP2 MSTORE PUSH1 0x1 DUP2 MSTORE PUSH1 0x3 PUSH1 0xFC SHL PUSH1 0x20 DUP3 ADD MSTORE SWAP1 JUMP JUMPDEST DUP2 PUSH1 0x0 JUMPDEST DUP2 ISZERO PUSH2 0x1152 JUMPI DUP1 PUSH2 0x113C DUP2 PUSH2 0x164B JUMP JUMPDEST SWAP2 POP PUSH2 0x114B SWAP1 POP PUSH1 0xA DUP4 PUSH2 0x1664 JUMP JUMPDEST SWAP2 POP PUSH2 0x112C JUMP JUMPDEST PUSH1 0x0 DUP2 PUSH8 0xFFFFFFFFFFFFFFFF DUP2 GT ISZERO PUSH2 0x116D JUMPI PUSH2 0x116D PUSH2 0x1678 JUMP JUMPDEST PUSH1 0x40 MLOAD SWAP1 DUP1 DUP3 MSTORE DUP1 PUSH1 0x1F ADD PUSH1 0x1F NOT AND PUSH1 0x20 ADD DUP3 ADD PUSH1 0x40 MSTORE DUP1 ISZERO PUSH2 0x1197 JUMPI PUSH1 0x20 DUP3 ADD DUP2 DUP1 CALLDATASIZE DUP4 CALLDATACOPY ADD SWAP1 POP JUMPDEST POP SWAP1 POP JUMPDEST DUP5 ISZERO PUSH2 0x1200 JUMPI PUSH2 0x11AC PUSH1 0xA DUP7 PUSH2 0x168E JUMP JUMPDEST PUSH2 0x11B7 SWAP1 PUSH1 0x30 PUSH2 0x1523 JUMP JUMPDEST PUSH1 0xF8 SHL DUP2 PUSH2 0x11C4 DUP5 PUSH2 0x16A2 JUMP JUMPDEST SWAP4 POP DUP4 DUP2 MLOAD DUP2 LT PUSH2 0x11D7 JUMPI PUSH2 0x11D7 PUSH2 0x16B9 JUMP JUMPDEST PUSH1 0x20 ADD ADD SWAP1 PUSH1 0x1 PUSH1 0x1 PUSH1 0xF8 SHL SUB NOT AND SWAP1 DUP2 PUSH1 0x0 BYTE SWAP1 MSTORE8 POP PUSH2 0x11F9 PUSH1 0xA DUP7 PUSH2 0x1664 JUMP JUMPDEST SWAP5 POP PUSH2 0x119B JUMP JUMPDEST SWAP5 SWAP4 POP POP POP POP JUMP JUMPDEST PUSH1 0x2 SLOAD PUSH1 0x1 PUSH1 0x30 SHL SWAP1 DIV PUSH1 0x1 PUSH1 0x1 PUSH1 0x80 SHL SUB AND ISZERO PUSH2 0x1300 JUMPI PUSH1 0x60 DUP2 ADD CALLDATALOAD ISZERO DUP1 ISZERO PUSH2 0x1234 JUMPI POP PUSH1 0x80 DUP2 ADD CALLDATALOAD ISZERO JUMPDEST ISZERO PUSH2 0x123C JUMPI POP JUMP JUMPDEST PUSH1 0xC SLOAD DUP2 PUSH1 0x60 ADD CALLDATALOAD GT ISZERO PUSH2 0x129E JUMPI PUSH1 0x40 MLOAD PUSH3 0x461BCD PUSH1 0xE5 SHL DUP2 MSTORE PUSH1 0x20 PUSH1 0x4 DUP3 ADD MSTORE PUSH1 0x24 DUP1 DUP3 ADD MSTORE PUSH32 0x4C504B65657065723A206D696E416D6F756E743020657863656564732062616C PUSH1 0x44 DUP3 ADD MSTORE PUSH4 0x616E6365 PUSH1 0xE0 SHL PUSH1 0x64 DUP3 ADD MSTORE PUSH1 0x84 ADD PUSH2 0x3E4 JUMP JUMPDEST PUSH1 0xD SLOAD DUP2 PUSH1 0x80 ADD CALLDATALOAD GT ISZERO PUSH2 0x1300 JUMPI PUSH1 0x40 MLOAD PUSH3 0x461BCD PUSH1 0xE5 SHL DUP2 MSTORE PUSH1 0x20 PUSH1 0x4 DUP3 ADD MSTORE PUSH1 0x24 DUP1 DUP3 ADD MSTORE PUSH32 0x4C504B65657065723A206D696E416D6F756E743120657863656564732062616C PUSH1 0x44 DUP3 ADD MSTORE PUSH4 0x616E6365 PUSH1 0xE0 SHL PUSH1 0x64 DUP3 ADD MSTORE PUSH1 0x84 ADD PUSH2 0x3E4 JUMP JUMPDEST POP JUMP JUMPDEST PUSH1 0x0 PUSH1 0x20 DUP3 DUP5 SUB SLT ISZERO PUSH2 0x1315 JUMPI PUSH1 0x0 DUP1 REVERT JUMPDEST POP CALLDATALOAD SWAP2 SWAP1 POP JUMP JUMPDEST PUSH1 0x0 DUP1 PUSH1 0x20 DUP4 DUP6 SUB SLT ISZERO PUSH2 0x132F JUMPI PUSH1 0x0 DUP1 REVERT JUMPDEST DUP3 CALLDATALOAD PUSH8 0xFFFFFFFFFFFFFFFF DUP1 DUP3 GT ISZERO PUSH2 0x1347 JUMPI PUSH1 0x0 DUP1 REVERT JUMPDEST DUP2 DUP6 ADD SWAP2 POP DUP6 PUSH1 0x1F DUP4 ADD SLT PUSH2 0x135B JUMPI PUSH1 0x0 DUP1 REVERT JUMPDEST DUP2 CALLDATALOAD DUP2 DUP2 GT ISZERO PUSH2 0x136A JUMPI PUSH1 0x0 DUP1 REVERT JUMPDEST DUP7 PUSH1 0x20 DUP3 DUP6 ADD ADD GT ISZERO PUSH2 0x137C JUMPI PUSH1 0x0 DUP1 REVERT JUMPDEST PUSH1 0x20 SWAP3 SWAP1 SWAP3 ADD SWAP7 SWAP2 SWAP6 POP SWAP1 SWAP4 POP POP POP POP JUMP JUMPDEST PUSH1 0x0 PUSH1 0x20 DUP3 DUP5 SUB SLT ISZERO PUSH2 0x13A0 JUMPI PUSH1 0x0 DUP1 REVERT JUMPDEST DUP2 CALLDATALOAD PUSH1 0x1 PUSH1 0x1 PUSH1 0xA0 SHL SUB DUP2 AND DUP2 EQ PUSH2 0x13B7 JUMPI PUSH1 0x0 DUP1 REVERT JUMPDEST SWAP4 SWAP3 POP POP POP JUMP JUMPDEST DUP1 CALLDATALOAD PUSH1 0x2 DUP2 SWAP1 SIGNEXTEND DUP2 EQ PUSH2 0x13D0 JUMPI PUSH1 0x0 DUP1 REVERT JUMPDEST SWAP2 SWAP1 POP JUMP JUMPDEST DUP1 CALLDATALOAD PUSH1 0x1 PUSH1 0x1 PUSH1 0x80 SHL SUB DUP2 AND DUP2 EQ PUSH2 0x13D0 JUMPI PUSH1 0x0 DUP1 REVERT JUMPDEST PUSH1 0x0 DUP1 PUSH1 0x0 DUP1 PUSH1 0x80 DUP6 DUP8 SUB SLT ISZERO PUSH2 0x1402 JUMPI PUSH1 0x0 DUP1 REVERT JUMPDEST PUSH2 0x140B DUP6 PUSH2 0x13BE JUMP JUMPDEST SWAP4 POP PUSH2 0x1419 PUSH1 0x20 DUP7 ADD PUSH2 0x13BE JUMP JUMPDEST SWAP3 POP PUSH1 0x40 DUP6 ADD CALLDATALOAD SWAP2 POP PUSH2 0x142E PUSH1 0x60 DUP7 ADD PUSH2 0x13D5 JUMP JUMPDEST SWAP1 POP SWAP3 SWAP6 SWAP2 SWAP5 POP SWAP3 POP JUMP JUMPDEST PUSH1 0x0 JUMPDEST DUP4 DUP2 LT ISZERO PUSH2 0x1454 JUMPI DUP2 DUP2 ADD MLOAD DUP4 DUP3 ADD MSTORE PUSH1 0x20 ADD PUSH2 0x143C JUMP JUMPDEST POP POP PUSH1 0x0 SWAP2 ADD MSTORE JUMP JUMPDEST DUP3 ISZERO ISZERO DUP2 MSTORE PUSH1 0x40 PUSH1 0x20 DUP3 ADD MSTORE PUSH1 0x0 DUP3 MLOAD DUP1 PUSH1 0x40 DUP5 ADD MSTORE PUSH2 0x1484 DUP2 PUSH1 0x60 DUP6 ADD PUSH1 0x20 DUP8 ADD PUSH2 0x1439 JUMP JUMPDEST PUSH1 0x1F ADD PUSH1 0x1F NOT AND SWAP2 SWAP1 SWAP2 ADD PUSH1 0x60 ADD SWAP4 SWAP3 POP POP POP JUMP JUMPDEST PUSH1 0x0 PUSH1 0xC0 DUP3 DUP5 SUB SLT ISZERO PUSH2 0x14AB JUMPI PUSH1 0x0 DUP1 REVERT JUMPDEST POP SWAP2 SWAP1 POP JUMP JUMPDEST PUSH1 0x20 DUP1 DUP3 MSTORE PUSH1 0x13 SWAP1 DUP3 ADD MSTORE PUSH19 0x262825B2B2B832B91D103737BA1037BBB732B9 PUSH1 0x69 SHL PUSH1 0x40 DUP3 ADD MSTORE PUSH1 0x60 ADD SWAP1 JUMP JUMPDEST PUSH1 0x20 DUP2 MSTORE DUP2 PUSH1 0x20 DUP3 ADD MSTORE DUP2 DUP4 PUSH1 0x40 DUP4 ADD CALLDATACOPY PUSH1 0x0 DUP2 DUP4 ADD PUSH1 0x40 SWAP1 DUP2 ADD SWAP2 SWAP1 SWAP2 MSTORE PUSH1 0x1F SWAP1 SWAP3 ADD PUSH1 0x1F NOT AND ADD ADD SWAP2 SWAP1 POP JUMP JUMPDEST PUSH4 0x4E487B71 PUSH1 0xE0 SHL PUSH1 0x0 MSTORE PUSH1 0x11 PUSH1 0x4 MSTORE PUSH1 0x24 PUSH1 0x0 REVERT JUMPDEST DUP1 DUP3 ADD DUP1 DUP3 GT ISZERO PUSH2 0x1536 JUMPI PUSH2 0x1536 PUSH2 0x150D JUMP JUMPDEST SWAP3 SWAP2 POP POP JUMP JUMPDEST DUP2 DUP2 SUB DUP2 DUP2 GT ISZERO PUSH2 0x1536 JUMPI PUSH2 0x1536 PUSH2 0x150D JUMP JUMPDEST PUSH10 0x31B7B7B63237BBB71D1 PUSH1 0xB5 SHL DUP2 MSTORE PUSH1 0x0 DUP3 MLOAD PUSH2 0x1574 DUP2 PUSH1 0xA DUP6 ADD PUSH1 0x20 DUP8 ADD PUSH2 0x1439 JUMP JUMPDEST PUSH11 0x732072656D61696E696E67 PUSH1 0xA8 SHL PUSH1 0xA SWAP4 SWAP1 SWAP2 ADD SWAP3 DUP4 ADD MSTORE POP PUSH1 0x15 ADD SWAP2 SWAP1 POP JUMP JUMPDEST PUSH1 0x0 PUSH1 0x20 DUP3 DUP5 SUB SLT ISZERO PUSH2 0x15A8 JUMPI PUSH1 0x0 DUP1 REVERT JUMPDEST PUSH2 0x13B7 DUP3 PUSH2 0x13BE JUMP JUMPDEST PUSH4 0x4E487B71 PUSH1 0xE0 SHL PUSH1 0x0 MSTORE PUSH1 0x12 PUSH1 0x4 MSTORE PUSH1 0x24 PUSH1 0x0 REVERT JUMPDEST PUSH1 0x0 DUP3 PUSH1 0x2 SIGNEXTEND DUP1 PUSH2 0x15DA JUMPI PUSH2 0x15DA PUSH2 0x15B1 JUMP JUMPDEST DUP1 DUP4 PUSH1 0x2 SIGNEXTEND SMOD SWAP2 POP POP SWAP3 SWAP2 POP POP JUMP JUMPDEST PUSH1 0x20 DUP1 DUP3 MSTORE PUSH1 0x27 SWAP1 DUP3 ADD MSTORE PUSH32 0x4C504B65657065723A207469636B206E6F7420616C69676E6564202873706163 PUSH1 0x40 DUP3 ADD MSTORE PUSH7 0x696E6720313029 PUSH1 0xC8 SHL PUSH1 0x60 DUP3 ADD MSTORE PUSH1 0x80 ADD SWAP1 JUMP JUMPDEST PUSH1 0x0 PUSH1 0x20 DUP3 DUP5 SUB SLT ISZERO PUSH2 0x1642 JUMPI PUSH1 0x0 DUP1 REVERT JUMPDEST PUSH2 0x13B7 DUP3 PUSH2 0x13D5 JUMP JUMPDEST PUSH1 0x0 PUSH1 0x1 DUP3 ADD PUSH2 0x165D JUMPI PUSH2 0x165D PUSH2 0x150D JUMP JUMPDEST POP PUSH1 0x1 ADD SWAP1 JUMP JUMPDEST PUSH1 0x0 DUP3 PUSH2 0x1673 JUMPI PUSH2 0x1673 PUSH2 0x15B1 JUMP JUMPDEST POP DIV SWAP1 JUMP JUMPDEST PUSH4 0x4E487B71 PUSH1 0xE0 SHL PUSH1 0x0 MSTORE PUSH1 0x41 PUSH1 0x4 MSTORE PUSH1 0x24 PUSH1 0x0 REVERT JUMPDEST PUSH1 0x0 DUP3 PUSH2 0x169D JUMPI PUSH2 0x169D PUSH2 0x15B1 JUMP JUMPDEST POP MOD SWAP1 JUMP JUMPDEST PUSH1 0x0 DUP2 PUSH2 0x16B1 JUMPI PUSH2 0x16B1 PUSH2 0x150D JUMP JUMPDEST POP PUSH1 0x0 NOT ADD SWAP1 JUMP JUMPDEST PUSH4 0x4E487B71 PUSH1 0xE0 SHL PUSH1 0x0 MSTORE PUSH1 0x32 PUSH1 0x4 MSTORE PUSH1 0x24 PUSH1 0x0 REVERT INVALID LOG2 PUSH5 0x6970667358 0x22 SLT KECCAK256 MSTORE8 PUSH13 0x95A65C6514693BB75CE10E09E2 0xC5 0xDC 0xA5 BLOBHASH TLOAD 0x2F LOG4 0x29 MLOAD 0x24 CREATE2 PUSH19 0xF1F3D8763664736F6C63430008180033000000 "},"methodIdentifiers":{"canRebalance()":"a06880c0","cooldownSeconds()":"b8221bc4","dailyRebalanceCount()":"55ac68f6","dailyRebalanceResetTs()":"7ae0b36a","emergencyWithdraw(address)":"6ff1c9bc","getPosition()":"7398ab18","keeper()":"aced1661","maxRebalancesPerDay()":"72dac4f3","maxSlippageBps()":"c4aa7395","openPosition(int24,int24,uint256,uint128)":"91d3a20f","owner()":"8da5cb5b","paused()":"5c975abb","position()":"09218e91","rebalance((int24,int24,uint256,uint256,uint256,uint128))":"aefa9d25","resetCircuitBreaker()":"de5f8d93","secondsUntilCooldownEnd()":"a440248d","setCooldown(uint256)":"4fc3f41a","setKeeper(address)":"748747e6","setMaxRebalancesPerDay(uint256)":"23bff40e","setMaxSlippage(uint256)":"43f68a49","simulatedBalance0()":"958e45c5","simulatedBalance1()":"bfa88431","triggerCircuitBreaker(string)":"61b242c5"}}}}}